:020000040800F2
:10000000C84400209D010008970300080103000870
:100010009503000859020008C1070008000000000D
:1000200000000000000000000000000005010008C2
:100030005B02000800000000490100087D0500087F
:10004000B7010008B7010008B7010008B7010008B0
:10005000B7010008B7010008B7010008B7010008A0
:10006000B7010008B7010008B7010008B701000890
:10007000B7010008B7010008B7010008B701000880
:10008000B7010008B7010008B7010008B701000870
:10009000B7010008B7010008B7010008B701000860
:1000A000B7010008B7010008B7010008B701000850
:1000B000E105000809060008B7010008B7010008BB
:1000C000B7010008B7010008B7010008B701000830
:1000D000B701000855060008B7010008B70100087D
:1000E000B7010008B7010008B7010008DFF810D019
:1000F00000F0A0F800480047210A0008AFF3008094
:10010000C8440020224B19680868B0E8F00F80F35B
:100110000988BFF36F8F4FF0000080F311884EF015
:100120000D0E70470000000006480068006880F36C
:10013000088862B661B6BFF34F8FBFF36F8F00DFE1
:1001400000BF00BF08ED00E0EFF30980BFF36F8F41
:100150000F4B1A6820E9F00F106008B54FF05000FF
:1001600080F31188BFF34F8FBFF36F8F01F0AAFCAC
:100170004FF0000080F31188BDE808401968086856
:10018000B0E8F00F80F30988BFF36F8F704700BFAE
:1001900034000020EFF305807047000006488047D8
:1001A00006480047FEE7FEE7FEE7FEE7FEE7FEE75C
:1001B000FEE7FEE7FEE7FEE791050008ED00000818
:1001C00040EA01039B0703D009E008C9121F08C0D9
:1001D000042AFAD203E011F8013B00F8013B521E59
:1001E000F9D27047D2B201E000F8012B491EFBD2D0
:1001F00070470022F6E710B513460A460446194632
:10020000FFF7F0FF204610BD30B50B460146002039
:100210002022012409E021FA02F59D4205D303FAC8
:1002200002F5491B04FA02F52844151EA2F1010249
:10023000F1DC30BD064C074D06E0E06840F00103FC
:1002400094E8070098471034AC42F6D3FFF752FF0A
:10025000D8260008F8260008FEE77047F0B5CC78ED
:10026000002204F00F03E40601D58C7823430C78B8
:100270004FF00F0C14F0FF0F4FF0010E1BD005686C
:100280000E880EFA02F42640A64210D196000CFA0F
:1002900006F725EA070703FA06F5CE783D43282E30
:1002A00002D0482E02D002E0446100E00461521CFA
:1002B000082AE5D305600A88FF2A1CD94468002271
:1002C00002F108060EFA06F50E882E40AE420ED157
:1002D00096000CFA06F7BC4303FA06F7CE783C43C7
:1002E000282E00D14561CE78482E00D10561521CE0
:1002F000082AE5D34460F0BD416170470161704751
:10030000FEE700002DE9F84304460121102000F02B
:100310007FF80121042000F07BF810268DF803609F
:100320007702DFF86880ADF8007003258DF8025081
:1003300069464046FFF792FF8DF803604FF48276DE
:10034000ADF800608DF80250114D69462846FFF760
:1003500085FF31462846FFF7CFFF04208DF80300C4
:100360000820ADF8000069462846FFF777FF012C0A
:1003700007D0002C03D139464046FFF7BFFFBDE848
:10038000F88339464046FFF7B7FFF8E70010014011
:1003900000080140FEE7704730B50F23C2780178AE
:1003A0000125F2B1144A126801F1E02102F4E06281
:1003B000C2F5E062120AC2F10404D3404278A240BE
:1003C00084781C401443220181F80024007800F056
:1003D0001F018D404009800000F1E020C0F800516D
:1003E00030BD01F01F0085404809800000F1E02089
:1003F000C0F8805130BD00000CED00E00249084318
:1004000002490860704700000000FA050CED00E0AA
:10041000044A0029916901D0014300E081439161C0
:10042000704700000010024030B5204A5168204B50
:1004300011F00C0103D0042901D0082901D0036078
:1004400012E05168536801F470114FF0020413F484
:10045000803F04EB914102D053689B0301D5154BBB
:1004600000E0134B5943016051680F2303EA111157
:10047000114B5C5C0168E14041605468072505EA66
:1004800014241C5D21FA04F48460546805EAD42421
:100490001B5DD940C1605268032303EA9232064BC8
:1004A0001B1F9A5CB1FBF2F1016130BD00100240EC
:1004B00000127A0000093D00240000200CB5002243
:1004C000264800920192016841F4803101604FF4A6
:1004D000A063016801F4003101910099491C009169
:1004E000019911B900999942F3D10168890333D573
:1004F000012101911A490A6842F010020A600A6853
:1005000022F003020A600A6842F002020A604168AF
:10051000416041684160416841F4806141604168E7
:1005200021F47C114160416841F4E81141600168A7
:1005300041F08071016001688901FCD5416821F0BA
:1005400003014160416841F0020141604168C1F32B
:1005500081010229FAD10CBD01920CBD00100240AC
:10056000002002404FF0E0210428086903D020F069
:1005700004000861704740F00400FAE710B501F08C
:100580004FFE012803D0BDE8104001F053BB10BD61
:100590000F4810B5016841F00101016041680D4A42
:1005A0001140416001680C4A11400160016821F46A
:1005B00080210160416821F4FE0141604FF41F0178
:1005C0008160FFF77BFF05494FF00060086010BDB8
:1005D000001002400000FFF8FFFFF6FE08ED00E00B
:1005E00010B501218C07204600F027F810B104A0B7
:1005F00000F0E8F82046BDE81040012100F01AB8EC
:1006000054494D32200D0A0010B5074C01212046F7
:1006100000F013F810B105A000F0D4F82046BDE8B2
:100620001040012100F006B80004004054494D3349
:10063000200D0A00C9430182704702460020138A38
:1006400092890B4202EA010202D0002A00D0012066
:100650007047000070B5154C40F22551204600F05F
:1006600035F800280ED0204600F0A6F8104AC1B296
:100670001088030406D444044FF0000306D50A2969
:1006800001D0138070BD40F400400DE00D2909D069
:10069000C0F30D04074D401C80B229551080C728B7
:1006A000EFD870BD40F48040108070BD003801402C
:1006B000A8000020004000200029818902D041F4D8
:1006C000005101E021F400518181704770B501F0C3
:1006D0001F0501260024C1F3421306FA05F2012B7F
:1006E0000FD0022B0FD0838A4FEA112100881342CA
:1006F00006FA01F600EA060001D000B10124204606
:1007000070BD8389F0E7038AEEE7000030B5044648
:10071000008A85B00D464CF6FF710840E988014318
:100720002182A0894EF6F3110840A9882A89114335
:100730006A8902431143A181A08A4FF6FF41084014
:10074000A9890143A1826846FFF76EFE19488442D9
:1007500001D1039800E00298A189090400EBC001CF
:1007600001EB0010296801D5490000E08900B0FBC9
:10077000F1F06422B0FBF2F109010B096FF01805EA
:100780006B4300EB8300A3891D044FF0320306D5B1
:1007900003EBC000B0FBF2F000F0070005E003EB54
:1007A0000010B0FBF2F000F00F000843208105B00C
:1007B00030BD0000003801408088C0F30800704759
:1007C000FEE700000FB4054B10B503A9044A0298D8
:1007D00000F018F810BC5DF814FB0000050A0008D2
:1007E000B000002002E008C8121F08C1002AFAD198
:1007F00070477047002001E001C1121F002AFBD1A1
:10080000704700002DE9FF4F8BB09A460F46054612
:10081000002606E025280BD052460D9990476D1C06
:10082000761C28780028F5D10FB03046BDE8F08F4F
:100830000024A0460122604900E0044315F8013F6E
:10084000203B02FA03F00842F7D128782E2817D16E
:1008500015F8010F44F004042A280ED06FF02F027F
:100860002878A0F1300109290AD808EB880102EBA9
:10087000410100EB01086D1CF2E757F8048B6D1C79
:10088000287869283ED006DC0028CDD063280BD01C
:10089000642804D136E0732810D075284BD0524616
:1008A0000D999047761C85E017F8040B8DF8000031
:1008B00000208DF80100E946012003E057F8049B71
:1008C0004FF0FF3061074FF0000401D40AE0641CD0
:1008D00044450DDA8442FADB19F804100029F6D1F8
:1008E00006E0641C8442FCDB19F804100029F8D1EE
:1008F000264404E019F8010B52460D999047641EF6
:10090000F8D257E001CF4FF00A0B002802DA40423C
:100910002D2102E0210504D52B218DF82410012181
:1009200003E0E10705D02021F7E70DF12009089148
:100930000CE00021F9E701CF4FF00A0BF9E7594627
:10094000FFF762FC01F1300209F8012D0028F6D111
:10095000ADEB090000F1200B600701D44FF0010856
:10096000D84502DDA8EB0B0000E000208046002403
:1009700006E009A85246005D0D999047641C761C5C
:1009800008988442F5DB04E0302052460D999047E8
:10099000761CB8F10001A8F10108F5DC05E019F8B2
:1009A000010B52460D999047761CBBF10001ABF14B
:1009B000010BF4DC6D1C34E70928010010B504209C
:1009C000FFF7D0FD0C480D490D4A0068B0FBF1F36C
:1009D000B0FBF1F14FF47A70414313700120508065
:1009E0004FF0E020026942F00202026141610169B8
:1009F00041F00101016110BD0C00002040420F00D8
:100A0000AA00002004490A885206FCD5024AC1B255
:100A1000121D11807047000000380140FEE7000001
:100A20001CB54FF44070FFF7E9FCFFF7C7FF4FF428
:100A3000165000F01BFD0020FFF764FC0649012062
:100A4000CDE900010023802204A1074801F0BCFB8E
:100A500000F0E6FF00201CBD0000002073746172EE
:100A6000745F7461736B0000E91300082DE9F041B5
:100A7000184E0F460446F5683068001D00F040FD32
:100A800038B9306890F82C100120884031698143D2
:100A90003161601C07D137B13168BDE8F0410E48C3
:100AA000091D00F066BD30682C44AC4244603168DA
:100AB00005D2B06BBDE8F041091D00F042BD706B7E
:100AC000091D00F03EFDB06A844200D2B462BDE868
:100AD000F081000034000020C40300202DE9F04123
:100AE000054600F053FD2D4EB068401CB0603068E4
:100AF0002B4F10B1706930B32BE03560B06801281E
:100B000027D1002404EB840007EB800000F00BFDEC
:100B1000641C202CF6D3234800F005FD2148143036
:100B200000F001FD1F48283000F0FDFC1D483C305E
:100B300000F0F9FC1B48503000F0F5FC19487063D8
:100B40001430B06305E03068E96AC06A884200D8B2
:100B50003560706A0121401C70626864E86A32691D
:100B600081401143316100EB800007EB8000291DBB
:100B700000F0FFFC00F046FD706900280CD03068E2
:100B8000E96AC06A884207D207494FF0805008607E
:100B9000BFF34F8FBFF36F8FBDE8F08134000020AB
:100BA000F40000207403002004ED00E010B500F014
:100BB000EDFC0E4C2068A0B90D4800F0B4FC0C48C8
:100BC000143000F0B0FC0A48E060143020610022CC
:100BD0001021052001F044F8206010B105A100F0BB
:100BE000E9FDBDE8104000F00DBD000070000020E0
:100BF000D8030020546D72510000000030B4026C24
:100C00000B46002A0BD0C1681144C1604468A14260
:100C100001D30168C16030BC1846FFF7D1BA30BCBF
:100C200070472DE9F041856B174604460026026C9B
:100C300082B1C7B1E068FFF7C3FAE168206C091A16
:100C4000E1602268914202D26168081AE060022FD6
:100C500016D017E02068A8B9606801F069FB064665
:100C6000002060600EE0A068FFF7AAFA216CA0687F
:100C70000844A0606168884204D32068A06001E055
:100C800005B16D1E6D1CA5633046BDE8F08110B541
:100C90000446006B00F0E8FC2046BDE8104000F080
:100CA000E3BC000010484FF47051420706D0C01D4D
:100CB0000D4920F00700411AC1F570510B4A00237D
:100CC0000144C2E900030839103A21F0070111601C
:100CD0004B600B600B1AC0E9001393604FF00040AB
:100CE0005360D06070470000000400209400002092
:100CF000134E144DA6F52F774FF08058DFF848902B
:100D000011E000F043FCF068C468201D00F0F8FB1F
:100D1000A868401EA8606868401E686000F072FC09
:100D20002046FFF7B4FF68680028EAD13868012838
:100D3000F9D9C9F80080BFF34F8FBFF36F8FF2E787
:100D4000B00300203400002004ED00E02DE9F0475E
:100D5000DDE909840E461746824691009946089DB2
:100D6000A522206BFFF73EFA6FF00301206B01EB29
:100D70008701084420F00707780705D040F2633266
:100D800019A11EA0FFF71EFD00202218315C82F879
:100D90003410315C11B1401C1028F6D3002684F8C1
:100DA0004360202D00D31F25E562C4E91356201DA2
:100DB00000F0C4FB04F1180000F0C0FB2461C5F191
:100DC00020006462A061666584F858604A46514616
:100DD000384600F0F7FA2060B8F1000F01D0C8F8EB
:100DE0000040BDE8F08700002E2E5C46726565521B
:100DF000544F535C7461736B732E63004572726F52
:100E0000723A25732C25640D0A00000030B5114993
:100E100000E011460A688242FBD34B685C188442AA
:100E200003D1406818444860084643681C1894423F
:100E300009D1084C103C2468A24209D052681A44D7
:100E400042600A6812680260814200D0086030BDCA
:100E50000460F9E79400002070B5002441600B4D58
:100E60000061914206D8D11A8269914206D2011DD1
:100E7000286907E09A4203D2994201D3012403E092
:100E8000011DE86800F05DFB204670BD7000002089
:100E900010B5044600F07AFBA06B20B1002400F0EE
:100EA000B1FB204610BD0124F9E700002DE9F34114
:100EB00000980F460026846C2CB940F6253216A106
:100EC0001AA0FFF77FFCA06BE16B884205D340F6C8
:100ED000263211A115A0FFF775FCA06BE16B8842CB
:100EE0000CD294F945503A4669462046FFF799FEE0
:100EF0000646681C05D06D1C84F845503046BDE898
:100F0000FC81606A0028F9D004F1240001F06AFA3B
:100F10000028F3D00126F1E72E2E5C46726565525B
:100F2000544F535C71756575652E63004572726F21
:100F3000723A25732C25640D0A000000F8B50546A9
:100F400014480E46C068C068C468201D00F0D8FA76
:100F5000E069012817D1A0692B4641193246204685
:100F6000FFF77AFF78B100200346014600902A4639
:100F7000204601F069FB30B907494FF4F27201F1E4
:100F80001800FFF71FFC616A01B02046BDE8F04081
:100F90000847000070000020AC25000870B586B03E
:100FA0002F4E53E00198002806DADDE90301029A8A
:100FB00090470198002849DB039C606910B1201D0F
:100FC00000F09EFA05A800F0A7F8054601980A2847
:100FD0003CD2DFE800F00505053B273805053B2737
:100FE0000298A169034601442A462046FFF734FFD0
:100FF00000282BD0616A20468847E069012825D166
:10100000002000900298A16900234218194620464A
:1010100001F01AFBD0B940F2FD2212A117A0FFF790
:10102000D1FB13E00298A06128B94FF445720DA1DD
:1010300012A0FFF7C7FBA0692B4641191A462046AC
:10104000FFF70AFF02E0204600F00EFB002201A994
:10105000306800F0C9FF0028A4D106B070BD0000C0
:10106000700000202E2E5C4672656552544F535C12
:1010700074696D6572732E63000000004572726FB3
:10108000723A25732C25640D0A000000F8B50D4650
:10109000064600F00FFD684600F03EF80446009852
:1010A00010B101F0EBF9F8BD1148ADB10169096863
:1010B000D9B10025311B2A46006800F08DFB01F0F4
:1010C000DDF90028EFD10B494FF080500860BFF3E5
:1010D0004F8FBFF36F8FF8BDA642EBD801F0CEF96A
:1010E00021463046FFF72AFFF8BD0125E2E7000060
:1010F0007000002004ED00E00648416B096829B14A
:10110000416BC968C9684968816270474FF0FF3117
:10111000FAE700003400002070B5054601F08EF8B3
:10112000064E0446B068844203D200F009F801205C
:1011300000E0002028602046B46070BD70000020F0
:10114000F8B5184E26E0C068C4680568201D00F098
:10115000D7F9616A20468847E06901281AD1A06959
:101160002844A84206D924616060211DF06800F07F
:10117000E8F90FE000200346014600902A46204689
:1011800001F062FA30B9084940F26E3201F11800FC
:10119000FFF718FBF06801680029D4D13169C6E96E
:1011A0000310F8BD70000020AC2500080848406816
:1011B000401C04D0CA2207A111A0FFF703FB502056
:1011C00080F31188BFF34F8FBFF36F8FFEE70000EE
:1011D0009C0000202E2E5C4672656552544F535C75
:1011E000706F727461626C655C525644535C41521C
:1011F0004D5F434D335C706F72742E6300000000CE
:101200004572726F723A25732C25640D0A00000036
:10121000084CE068016839B1002139B10020FFF7BE
:1012200035FFFFF7BBFEF4E70121F6E7C068006871
:10123000F5E70000700000202DE9F041044600F0C1
:10124000A5F994F9455004F1240610E0A06C20B1F2
:1012500000212046FFF72AFE04E0606A48B13046CC
:1012600001F0C0F808B100F07DFB6D1E6DB2002DDD
:10127000ECDC4FF0FF3684F8456000F0C3F900F075
:1012800085F994F9445004F1100709E0206948B148
:10129000384601F0A7F808B100F064FB6D1E6DB28E
:1012A000002DF3DC84F84460BDE8F04100F0AAB9F9
:1012B0002DE9F0410546002600F0FCFB324F38686E
:1012C00008B9FFF7EFFCF86805424FD1002D4DD06B
:1012D000083568070BD005F00700C0F10800054489
:1012E000680704D0952229A132A0FFF76BFA002DE0
:1012F0003CD07868854239D82349103108460468C3
:1013000001E0214604466068A84202D22068002815
:10131000F7D13868B846844228D00E682068086043
:1013200060680836401B10280ED96719780704D06A
:10133000C22216A11FA0FFF745FA6068401B786023
:1013400038466560FFF762FD6168D8F804004246E0
:10135000401AC8F80400D8F80830984200D29060CB
:10136000D8F80C0001430020C4E9000101F086F820
:10137000700705D04FF4817204A10EA0FFF722FA86
:101380003046BDE8F0810000840000202E2E5C462F
:1013900072656552544F535C706F727461626C6514
:1013A0005C4D656D4D616E675C686561705F342E84
:1013B000630000004572726F723A25732C25640D2C
:1013C0000A00000010B5031F4FF080741C601B1F43
:1013D00021F001011960191F024B0B6014394038CC
:1013E0000A6010BDAD1100081CB500F0CFF80F4920
:1013F0000220CDE90001002380220DA10F4800F05A
:10140000E3FE0A490320091DCDE9000100238022E3
:101410000BA10E4800F0D8FE0448001F006800F041
:1014200033FABDE81C4000F0EDB8000004000020D5
:101430007461736B315F7461736B00005114000849
:101440006C6973745F7461736B0000001D0A00089F
:10145000054C4FF4FA75D4F8A001C143C4F8A011AB
:10146000284600F0DBF9F6E70000214270B505469A
:1014700086B0012144F20400FEF7CAFF4FF4007069
:10148000ADF8100003248DF8124018201A4E8DF884
:10149000130004A93046FEF7E1FE3015ADF8100048
:1014A00004208DF8130004A93046FEF7D7FE25204E
:1014B0008DF814008DF8154000248DF81640012099
:1014C0008DF8170005A8FEF767FFADF80440ADF8EA
:1014D0000640ADF80840ADF80C400C20074CADF8C4
:1014E0000A00009569462046FFF710F901212046C1
:1014F000FFF7E2F806B070BD000801400038014077
:10150000D0E9013201699A60D0E901235A604A6842
:10151000824201D182684A60002202610868401E4E
:1015200008600868704700F108014FF0FF32C0E919
:101530000112C16001610021016070470021016159
:10154000704730B50C68621C02D000F1080202E05E
:10155000026904E01A4653681D68A542FAD9536827
:101560004B6099608A60516008610168491C0160A4
:1015700030BD42684A6093688B609368596091609F
:1015800008610168491C016070470000502080F329
:101590001188BFF34F8FBFF36F8F09494868401C14
:1015A000486001280AD10748006810F0FF0F05D0F5
:1015B0004FF4B37204A10FA0FFF704B97047000005
:1015C0009C00002004ED00E02E2E5C467265655202
:1015D000544F535C706F727461626C655C52564418
:1015E000535C41524D5F434D335C706F72742E6398
:1015F000000000004572726F723A25732C25640D4D
:101600000A00000010B5084C606828B940F26D125D
:1016100006A111A0FFF7D6F86068401E606001D1F6
:1016200080F3118810BD00009C0000202E2E5C4627
:1016300072656552544F535C706F727461626C6571
:101640005C525644535C41524D5F434D335C706F66
:1016500072742E63000000004572726F723A257337
:101660002C25640D0A00000070B500282AD0164D04
:10167000A0F108046068E968084205D14FF48B7254
:1016800012A11CA0FFF79EF8206828B140F21712A3
:101690000EA118A0FFF796F86068E968084211D01B
:1016A0002268002A0ED18843606000F003FA606867
:1016B0006968084468602046FFF7A8FBBDE87040F1
:1016C00000F0DCBE70BD0000840000202E2E5C46C1
:1016D00072656552544F535C706F727461626C65D1
:1016E0005C4D656D4D616E675C686561705F342E41
:1016F000630000004572726F723A25732C25640DE9
:101700000A0000004FF0E0200021016181610549DD
:101710004FF47A720968B1FBF2F1491E4161072169
:10172000016170470C00002010B5FEF733FD104C2E
:1017300010280CD300F1E02090F8F00321788842C3
:1017400005D240F2A5220BA115A0FFF73BF81848DF
:101750000068A16800F4E060884207D9BDE8104045
:1017600040F2B52203A10EA0FFF72CB810BD000077
:101770009C0000202E2E5C4672656552544F535CCF
:10178000706F727461626C655C525644535C415276
:101790004D5F434D335C706F72742E630000000028
:1017A0004572726F723A25732C25640D0A00000091
:1017B0000CED00E010B5074B002253F832401CB18D
:1017C000521C082AF9D310BD43F8321003EBC201B2
:1017D000486010BDB400002070B515460E460446A2
:1017E000FFF7D4FE94F944100020491C01D184F87D
:1017F000440094F94510491C01D184F84500FFF7D5
:1018000001FFA06B28B92A46314604F1240000F0FC
:10181000D9F82046BDE87040FFF70EBD10B50400B2
:1018200012D00E49096B29B140F20F520CA111A040
:10183000FEF7C8FF00F03EF900212046FFF716F939
:1018400000F01CFE002807D10E494FF080500860C0
:10185000BFF34F8FBFF36F8F10BD00003400002027
:101860002E2E5C4672656552544F535C7461736BE7
:10187000732E63004572726F723A25732C25640DC6
:101880000A00000004ED00E070B50446FFF77EFE9C
:10189000234D04B92C68201DFFF732FE58B9E06AC9
:1018A000204A00EB800152F8211021B9012181402A
:1018B000286988432861A06A18B104F11800FFF76D
:1018C0001FFE686A401C68622868844207D1211D97
:1018D0001548FFF74EFE6868401C686007E0A8687E
:1018E000401EA8602046FFF7D2F9FFF705FCFFF77E
:1018F00089FE6869002812D0286884420FD1286BBD
:1019000028B140F2A54209A10DA0FEF75BFF1049E6
:101910004FF080500860BFF34F8FBFF36F8F70BDE3
:1019200034000020F4000020B00300202E2E5C467E
:1019300072656552544F535C7461736B732E630010
:101940004572726F723A25732C25640D0A000000EF
:1019500004ED00E002490A6A0260C968416070470C
:101960003400002001490120C86170473400002084
:1019700070B50D46040005D14FF4366207A10CA0E6
:10198000FEF720FF0E48016820461831FFF7D9FD09
:101990002846BDE870400121FFF768B82E2E5C464E
:1019A00072656552544F535C7461736B732E6300A0
:1019B0004572726F723A25732C25640D0A0000007F
:1019C0003400002070B514460E46050005D140F6DF
:1019D0008B3209A10DA0FEF7F5FE104801682846DC
:1019E0001831FFF7C6FD0CB14FF0FF3621463046E7
:1019F000BDE87040FFF73AB82E2E5C46726565521E
:101A0000544F535C7461736B732E63004572726F35
:101A1000723A25732C25640D0A0000003400002062
:101A20001CB517480024CDE900402346822215A1A9
:101A3000164800F0C9FB012803D100F0CBFD0128B6
:101A40000AD0401C1BD102B040F2DC72BDE810404D
:101A50000FA114A0FEF7B6BE502080F31188BFF38B
:101A60004F8FBFF36F8F06484FF0FF312C388162E4
:101A700001214161C460BDE81C4000F061B81CBD9B
:101A80006000002049444C4500000000F10C0008B3
:101A90002E2E5C4672656552544F535C7461736BB5
:101AA000732E63004572726F723A25732C25640D94
:101AB0000A0000000248016B491C016370470000E6
:101AC0003400002070B5134D286B10B10120E8617F
:101AD00070BD0020E86128690F4EB0FA80F0C0F1B7
:101AE0001F0000EB800456F8240028B94FF435623B
:101AF0000AA10FA0FEF766FE06EB840000F10802C3
:101B0000416849684160914201D149684160C868B3
:101B1000286070BD34000020F40000202E2E5C46AA
:101B200072656552544F535C7461736B732E63001E
:101B30004572726F723A25732C25640D0A000000FD
:101B40007CB52A4D28780190FF20287028788DF8E0
:101B500000009DF800009DF8001000F0F0008842A1
:101B600005D04FF48A7222A12CA0FEF72BFE9DF81F
:101B700000002E4C00F0500020700720A06006E00E
:101B8000401EA0609DF8000040008DF800009DF808
:101B900000000006A068F3D403280ED040F22712FC
:101BA00013A11EA0FEF70EFEA068032805D04FF477
:101BB00098720FA119A0FEF705FE207A000200F42A
:101BC000E060A060019828701948016841F4700134
:101BD0000160016841F070410160FFF793FD002052
:101BE0006060FEF7A1FA00207CBD000000E400E088
:101BF0002E2E5C4672656552544F535C706F727442
:101C000061626C655C525644535C41524D5F434D7A
:101C1000335C706F72742E63000000004572726F47
:101C2000723A25732C25640D0A0000009C000020E8
:101C300020ED00E010B5502080F31188BFF34F8FE6
:101C4000BFF36F8F00F000FB18B104494FF08050D4
:101C50000860002080F3118810BD000004ED00E052
:101C60002DE9F04117460E46050005D14FF4B67236
:101C700010A115A0FEF7A6FDBEB105FB06F054307D
:101C8000FFF716FB04000ED004F154007EB1206073
:101C9000C4E90F562046012100F01EF884F8507068
:101CA00000212046A164BDE8F0810020E7E7246020
:101CB000EEE700002E2E5C4672656552544F535C71
:101CC00071756575652E63004572726F723A257382
:101CD0002C25640D0A00000070B50D46040004D1E7
:101CE000FB221DA121A0FEF76DFDFFF74FFCD4E9FB
:101CF0000F20216802FB001161600021A1632168AF
:101D0000A1600A46D4E90F01401E00FB0121E160F9
:101D100021464FF0FF3001F8440F487004F11000E5
:101D20004DB1FFF700FC04F12400FFF7FCFBFFF7C7
:101D300069FC012070BD21690029F8D000F052FB38
:101D40000028F4D00D494FF080500860BFF34F8F4A
:101D5000BFF36F8FEBE700002E2E5C467265655275
:101D6000544F535C71756575652E63004572726FD3
:101D7000723A25732C25640D0A00000004ED00E082
:101D80002DE9FF4F83B099468B4604004FF00006C3
:101D900005D140F2DB2252A156A0FEF713FDBBF1A4
:101DA000000F07D1206C28B14FF437724CA151A01D
:101DB000FEF708FDB9F1020F08D1E06B012805D04C
:101DC00040F2DD2246A14BA0FEF7FCFC00F028FA11
:101DD00038B9059828B14FF4387241A145A0FEF7F3
:101DE000F1FC4FF0000A4FF08057DFF81881FFF741
:101DF000CDFBA06BE16B884206D3B9F1020F03D093
:101E0000059800B316B325E04A4659462046FEF72A
:101E100008FFA16C21B149462046FFF747F805E0CD
:101E2000616A19B104F1240000F0DCFA28B1C8F8A5
:101E30000070BFF34F8FBFF36F8FFFF7E3FB0120FD
:101E400007B0BDE8F08FFFF7DDFB21E06846FFF744
:101E500081FD0126FFF7D6FBFFF72CFEFFF796FB6F
:101E600094F94400401C01D184F844A094F9450041
:101E7000401C01D184F845A0FFF7C4FB05A96846C2
:101E800000F05AF930B12046FFF7D6F900F0F6FA23
:101E90000020D5E7FFF77AFBA06BE16B884201D108
:101EA000012500E00025FFF7ADFB95B104F110001E
:101EB0000599FFF75DFD2046FFF7BEF900F0DEFA59
:101EC000002894D1C8F80070BFF34F8FBFF36F8F15
:101ED0008DE72046FFF7B0F900F0D0FA87E7000061
:101EE0002E2E5C4672656552544F535C7175657554
:101EF000652E63004572726F723A25732C25640D4E
:101F00000A00000004ED00E02DE9F0479846154670
:101F10008946040005D140F2A1322AA12EA0FEF785
:101F200051FCB9F1000F07D1206C28B140F2A23268
:101F300024A129A0FEF746FCB8F1020F08D1E06BFE
:101F4000012805D040F2A3321EA123A0FEF73AFCDF
:101F5000FFF7EAFB5020EFF3118780F31188BFF3FE
:101F60004F8FBFF36F8FA06BE16B884207D3B8F13F
:101F7000020F04D0002087F31188BDE8F08794F9A0
:101F80004560424649462046FEF74BFE701C04D091
:101F9000761C84F845600120EDE7A06C012620B195
:101FA00041462046FEF782FF06E0606A0028F2D034
:101FB00004F1240000F016FA0028ECD0002DEAD03D
:101FC0002E60E8E72E2E5C4672656552544F535CD6
:101FD00071756575652E63004572726F723A25736F
:101FE0002C25640D0A0000002DE9F74783B08A46CE
:101FF00004004FF0000605D140F2DE4244A149A0A2
:10200000FEF7E0FBBAF1000F07D1206C28B140F2D7
:10201000E2423FA143A0FEF7D5FB00F001F938B939
:10202000059828B140F2E74239A13EA0FEF7CAFB6D
:1020300000274FF08058DFF8FC90FFF7A7FAA56B58
:10204000C5B151462046FEF7D9FD6D1EA563206936
:1020500050B104F1100000F0C5F928B1C9F80080B2
:10206000BFF34F8FBFF36F8FFFF7CCFA012006B09D
:10207000BDE8F087059808B11EB106E0FFF7C2FA87
:1020800027E06846FFF766FC0126FFF7BBFAFFF77B
:1020900011FDFFF77BFA94F94400401C01D184F84C
:1020A000447094F94500401C01D184F84570FFF755
:1020B000A9FA05A9684600F03FF8002820460AD092
:1020C000FFF7BAF800F0DAF92046FEF7E1FE002843
:1020D000B3D00020CBE7FEF7DBFE90B104F1240083
:1020E0000599FFF745FC2046FFF7A6F800F0C6F972
:1020F0000028A2D1C9F80080BFF34F8FBFF36F8FC4
:102100009BE72046FFF798F800F0B8F995E7000044
:102110002E2E5C4672656552544F535C7175657521
:10212000652E63004572726F723A25732C25640D1B
:102130000A00000004ED00E02DE9F0410C46050026
:1021400005D140F6264216A11AA0FEF73BFB2CB99A
:1021500040F6274212A117A0FEF734FBFFF716FA4C
:10216000184EF1686B682268C81A571C07D02F6890
:10217000366AB74209D08B4207D8012400E0002418
:10218000FFF740FA2046BDE8F081824205D9101AD7
:1021900020602846FFF7DEFBF1E700202060ECE737
:1021A0002E2E5C4672656552544F535C7461736B9E
:1021B000732E63004572726F723A25732C25640D7D
:1021C0000A000000340000202DE9FF5F8346DDE9AE
:1021D0000E87994616468A469000FFF769F8050073
:1021E0001AD05C20FFF764F8040012D025630021A8
:1021F000CDE90241CDE900874B463246514658466B
:10220000FEF7A4FD2046FEF769FC012004B0BDE8FE
:10221000F09F2846FFF728FA4FF0FF30F6E700005E
:102220000548416919B1006B18B1002070470120C1
:102230007047022070470000340000200148C06849
:1022400070470000340000202DE9F0412D4F00269A
:10225000386B40B1B869401CB861F86900B101261B
:102260003046BDE8F081FD686D1CFD6011D1786BD2
:10227000006828B140F6332223A128A0FEF7A2FA75
:10228000786BB96B7963B863386A401C3862FEF7C3
:1022900033FFB86ADFF89480854209D3786B006811
:1022A00080B1786BC068C468606885420DD2B8623E
:1022B0003868C06A00EB800158F821000128CCD9A9
:1022C0000126CAE74FF0FF30F1E7201DFFF718F9AC
:1022D000A06A18B104F11800FFF712F9E06A0121B1
:1022E0003A6981401143396100EB800108EB8100BC
:1022F000211DFFF73EF9E06A3968C96A8842CDD3EB
:102300000126CBE7340000202E2E5C467265655214
:10231000544F535C7461736B732E63004572726F1C
:10232000723A25732C25640D0A000000F400002089
:1023300070B504004FF000063CD01F4D2868844261
:1023400005D040F63B721DA121A0FEF73BFA206D9F
:1023500028B940F63C7219A11DA0FEF733FA206D92
:10236000401E2065E26CE16A914223D010BB201D23
:10237000FFF7C6F81A49012250B9E06A00EB800362
:1023800051F8233023B92B6902FA00F083432B6103
:10239000E06CE062C0F12000A061E06A2B6982403D
:1023A0001A432A6100EB800001EB8000211DFFF73A
:1023B000E0F80126304670BD340000202E2E5C4629
:1023C00072656552544F535C7461736B732E630076
:1023D0004572726F723A25732C25640D0A00000055
:1023E000F40000202DE9F041C068C4682CB940F623
:1023F000BB3216A11AA0FEF7E5F904F11800074652
:10240000FFF77EF81A4D286B012660B1394619484E
:10241000FFF7AFF8E06A2968C96A884213D901203A
:10242000EE61BDE8F081201DFFF76AF8E06A2A69D5
:1024300006FA00F1114329610F4900EB800001EB1E
:102440008000211DE4E70020EBE700002E2E5C4613
:1024500072656552544F535C7461736B732E6300E5
:102460004572726F723A25732C25640D0A000000C4
:10247000340000209C030020F40000202DE9F047E8
:102480002B4D00242746286B28B94FF4046229A15C
:102490002DA0FEF797F9FFF779F8286B401E286307
:1024A000286BE8BBA8682C490126C8B3A1F52A7996
:1024B0008846D8F80010E9B1D8F80C00C46804F1D7
:1024C0001800FFF71DF8201DFFF71AF8E06A2A69C7
:1024D00006FA00F11143296100EB800109EB81004C
:1024E000211DFFF746F8E06A2968C96A8842E0D3EF
:1024F000EE61DEE70CB1FEF7FFFDAC693CB1FFF722
:10250000A3FE00B1EE61641EF9D10020A861E86964
:1025100030B11249012738070860BFF34F8F00E040
:1025200001E0BFF36F8FFFF76DF83846BDE8F08725
:10253000340000202E2E5C4672656552544F535C69
:102540007461736B732E63004572726F723A2573F8
:102550002C25640D0A0000009C03002004ED00E01F
:102560002DE9F0470746994616460D462C20DDF822
:1025700020A0FEF79DFE040014D0B8464F46D14679
:102580002DB94FF4B47209A10EA0FEF71BF9FEF7A6
:102590000DFB04F11801C4F8008081E8E002201D61
:1025A000FEF7CCFF2046BDE8F08700002E2E5C46EB
:1025B00072656552544F535C74696D6572732E6316
:1025C000000000004572726F723A25732C25640D6D
:1025D0000A0000001CB50024FEF7E8FA0C48006869
:1025E00068B10B491F20091DCDE9000100234FF4FC
:1025F000827208A10948FFF7E7FD040005D140F207
:102600000F1207A10CA0FEF7DDF820461CBD00004C
:1026100070000020546D7220537663001112000880
:102620002E2E5C4672656552544F535C74696D651D
:1026300072732E63000000004572726F723A257348
:102640002C25640D0A0000002DE9FF47DDF830A0BD
:10265000994690460D4606004FF0000705D14FF40D
:10266000C17212A117A0FEF7ADF81A4C206880B114
:10267000CDE900580296062D11DAFFF7D1FD0228A8
:102680004FF0000309D0002269462068FFF778FB6D
:10269000074604B03846BDE8F0875246F4E7002309
:1026A0004A466946FFF730FCF2E700002E2E5C46F2
:1026B00072656552544F535C74696D6572732E6315
:1026C000000000004572726F723A25732C25640D6C
:1026D0000A00000070000020F8260008000000201A
:1026E000B4000000E4070008AC270008B400002094
:1026F00014440000F407000800000000000000007F
:102700000000000000A24A040000000000000000D9
:10271000010203040607080902040608000000007D
:102720000102030401020304060708090000000077
:102730000000000000000000000000000000000099
:102740000000000000000000000000000000000089
:102750000000000000000000000000000000000079
:102760000000000000000000000000000000000069
:102770000000000000000000000000000000000059
:102780000000000000000000000000000000000049
:102790000000000000000000AAAAAAAA0000000091
:0C27A0000000000000000000000000002D
:04000005080000ED02
:00000001FF
