:020000040800F2
:10000000D04400209D010008F704000861040008A6
:10001000F504000859020008AD08000800000000BF
:1000200000000000000000000000000005010008C2
:100030005B0200080000000049010008DD0600081E
:10004000B7010008B7010008B7010008B7010008B0
:10005000B7010008B7010008B7010008B7010008A0
:10006000B7010008B70100085D020008B7010008E9
:10007000B7010008B7010008B7010008B701000880
:10008000B7010008B7010008B7010008B701000870
:10009000B7010008B7010008B7010008B701000860
:1000A000B7010008B7010008B7010008B701000850
:1000B000B7010008B7010008B7010008B701000840
:1000C000B7010008B7010008B7010008B701000830
:1000D000B701000841070008B7010008B701000890
:1000E000B7010008B7010008B7010008DFF810D019
:1000F00000F0A0F800480047B10B0008AFF3008003
:10010000D0440020224B19680868B0E8F00F80F353
:100110000988BFF36F8F4FF0000080F311884EF015
:100120000D0E70470000000006480068006880F36C
:10013000088862B661B6BFF34F8FBFF36F8F00DFE1
:1001400000BF00BF08ED00E0EFF30980BFF36F8F41
:100150000F4B1A6820E9F00F106008B54FF05000FF
:1001600080F31188BFF34F8FBFF36F8F01F07AFEDA
:100170004FF0000080F31188BDE808401968086856
:10018000B0E8F00F80F30988BFF36F8F704700BFAE
:1001900038000020EFF305807047000006488047D4
:1001A00006480047FEE7FEE7FEE7FEE7FEE7FEE75C
:1001B000FEE7FEE7FEE7FEE7F1060008ED000008B7
:1001C00040EA01039B0703D009E008C9121F08C0D9
:1001D000042AFAD203E011F8013B00F8013B521E59
:1001E000F9D27047D2B201E000F8012B491EFBD2D0
:1001F00070470022F6E710B513460A460446194632
:10020000FFF7F0FF204610BD30B50B460146002039
:100210002022012409E021FA02F59D4205D303FAC8
:1002200002F5491B04FA02F52844151EA2F1010249
:10023000F1DC30BD064C074D06E0E06840F00103FC
:1002400094E8070098471034AC42F6D3FFF752FF0A
:10025000242B0008442B0008FEE7704710B50A2045
:1002600000F060FC102000F01DF860B10848006844
:1002700002F046FB012806D1064900070860BFF3DB
:100280004F8FBFF36F8FBDE81040102000F004B80F
:100290000800002004ED00E00149086070470000FC
:1002A00014040140064A014600201268044B0A402B
:1002B00014331B680B4202D0002A00D00120704783
:1002C0000004014030B51A4A8379016853B31368BA
:1002D0008B431360111D0B680468A3430B60017905
:1002E00011440B68046823430B60114B08331968F1
:1002F0000468A14319601C1D21680568A943216099
:100300004179102905D011440A68006802430A6047
:1003100030BD196802681143196021680068014303
:10032000216030BD0079104402688A43026030BD0C
:10033000000401407FB50121052000F019F9482093
:100340008DF80F001024ADF80C4003A9104800F000
:1003500035F8009401248DF8064000258DF80450EE
:100360000C208DF805006846FFF7ACFF0421002043
:1003700000F010F80A208DF808008DF80B400620D8
:100380008DF809008DF80A5002A800F0B5F87FBD7D
:100390000008014010B58A0721F003040649120F36
:1003A00021440F238C6893409C438C608B68904061
:1003B00003438B6010BD000000000140F0B5CC7815
:1003C000002204F00F03E40601D58C7823430C7857
:1003D0004FF00F0C14F0FF0F4FF0010E1BD005680B
:1003E0000E880EFA02F42640A64210D196000CFAAE
:1003F00006F725EA070703FA06F5CE783D43282ECF
:1004000002D0482E02D002E0446100E00461521C98
:10041000082AE5D305600A88FF2A1CD9446800220F
:1004200002F108060EFA06F50E882E40AE420ED1F5
:1004300096000CFA06F7BC4303FA06F7CE783C4365
:10044000282E00D14561CE78482E00D10561521C7E
:10045000082AE5D34460F0BD4161704701617047EF
:10046000FEE700002DE9F84304460121102000F0CA
:100470007FF80121042000F07BF810268DF803603E
:100480007702DFF86880ADF8007003258DF8025020
:1004900069464046FFF792FF8DF803604FF482767D
:1004A000ADF800608DF80250114D69462846FFF7FF
:1004B00085FF31462846FFF7CFFF04208DF8030063
:1004C0000820ADF8000069462846FFF777FF012CA9
:1004D00007D0002C03D139464046FFF7BFFFBDE8E7
:1004E000F88339464046FFF7B7FFF8E700100140B0
:1004F00000080140FEE7704730B50F23C27801784D
:100500000125F2B1144A126801F1E02102F4E0621F
:10051000C2F5E062120AC2F10404D3404278A2405C
:1005200084781C401443220181F80024007800F0F4
:100530001F018D404009800000F1E020C0F800510B
:1005400030BD01F01F0085404809800000F1E02027
:10055000C0F8805130BD00000CED00E002490843B6
:1005600002490860704700000000FA050CED00E049
:10057000044A0029916901D0014300E0814391615F
:10058000704700000010024030B5204A5168204BEF
:1005900011F00C0103D0042901D0082901D0036017
:1005A00012E05168536801F470114FF0020413F423
:1005B000803F04EB914102D053689B0301D5154B5A
:1005C00000E0134B5943016051680F2303EA1111F6
:1005D000114B5C5C0168E14041605468072505EA05
:1005E00014241C5D21FA04F48460546805EAD424C0
:1005F0001B5DD940C1605268032303EA9232064B67
:100600001B1F9A5CB1FBF2F1016130BD001002408A
:1006100000127A0000093D00280000200CB50022DD
:10062000264800920192016841F4803101604FF444
:10063000A063016801F4003101910099491C009107
:10064000019911B900999942F3D10168890333D511
:10065000012101911A490A6842F010020A600A68F1
:1006600022F003020A600A6842F002020A6041684E
:10067000416041684160416841F480614160416886
:1006800021F47C114160416841F4E8114160016846
:1006900041F08071016001688901FCD5416821F059
:1006A00003014160416841F0020141604168C1F3CA
:1006B00081010229FAD10CBD01920CBD001002404B
:1006C000002002404FF0E0210428086903D020F008
:1006D00004000861704740F00400FAE710B501F02B
:1006E0006FFF012803D0BDE8104001F073BC10BDBE
:1006F0000F4810B5016841F00101016041680D4AE1
:100700001140416001680C4A11400160016821F408
:1007100080210160416821F4FE0141604FF41F0116
:100720008160FFF77BFF05494FF00060086010BD56
:10073000001002400000FFF8FFFFF6FE08ED00E0A9
:1007400070B5154C40F22551204600F035F80028D0
:100750000ED0204600F0A6F8104AC1B2108803045B
:1007600006D444044FF0000306D50A2901D01380B3
:1007700070BD40F400400DE00D2909D0C0F30D0418
:10078000074D401C80B229551080C728EFD870BD96
:1007900040F48040108070BD00380140AC00002063
:1007A000044000200029818902D041F4005101E079
:1007B00021F400518181704770B501F01F050126B9
:1007C0000024C1F3421306FA05F2012B0FD0022BCD
:1007D0000FD0838A4FEA11210088134206FA01F6EE
:1007E00000EA060001D000B10124204670BD8389D3
:1007F000F0E7038AEEE7000030B50446008A85B0D2
:100800000D464CF6FF710840E98801432182A0891A
:100810004EF6F3110840A9882A8911436A890243D8
:100820001143A181A08A4FF6FF410840A9890143E5
:10083000A1826846FFF7A8FE1948844201D10398B7
:1008400000E00298A189090400EBC00101EB00104F
:10085000296801D5490000E08900B0FBF1F064226D
:10086000B0FBF2F109010B096FF018056B4300EBC7
:100870008300A3891D044FF0320306D503EBC000AB
:10088000B0FBF2F000F0070005E003EB0010B0FB56
:10089000F2F000F00F000843208105B030BD0000E9
:1008A000003801408088C0F308007047FEE7000070
:1008B0000FB4054B10B503A9044A029800F018F8CC
:1008C00010BC5DF814FB0000410B0008B4000020D0
:1008D00002E008C8121F08C1002AFAD17047704709
:1008E000002001E001C1121F002AFBD17047000067
:1008F0002DE9FF4F8BB09A460F460546002606E0CD
:1009000025280BD052460D9990476D1C761C2878EF
:100910000028F5D10FB03046BDE8F08F0024A04686
:100920000122604900E0044315F8013F203B02FA30
:1009300003F00842F7D128782E2817D115F8010FB7
:1009400044F004042A280ED06FF02F022878A0F17A
:10095000300109290AD808EB880102EB410100EBBC
:1009600001086D1CF2E757F8048B6D1C2878692884
:100970003ED006DC0028CDD063280BD0642804D1FB
:1009800036E0732810D075284BD052460D99904709
:10099000761C85E017F8040B8DF8000000208DF818
:1009A0000100E946012003E057F8049B4FF0FF30B7
:1009B00061074FF0000401D40AE0641C44450DDADD
:1009C0008442FADB19F804100029F6D106E0641C11
:1009D0008442FCDB19F804100029F8D1264404E015
:1009E00019F8010B52460D999047641EF8D257E052
:1009F00001CF4FF00A0B002802DA40422D2102E01D
:100A0000210504D52B218DF82410012103E0E107F5
:100A100005D02021F7E70DF1200908910CE0002115
:100A2000F9E701CF4FF00A0BF9E75946FFF7ECFB66
:100A300001F1300209F8012D0028F6D1ADEB0900D3
:100A400000F1200B600701D44FF00108D84502DD0A
:100A5000A8EB0B0000E000208046002406E009A877
:100A60005246005D0D999047641C761C089884429C
:100A7000F5DB04E0302052460D999047761CB8F122
:100A80000001A8F10108F5DC05E019F8010B524658
:100A90000D999047761CBBF10001ABF1010BF4DC22
:100AA0006D1C34E70928010010B50420FFF70AFE89
:100AB0000C480D490D4A0068B0FBF1F3B0FBF1F1B1
:100AC0004FF47A7041431370012050804FF0E020C2
:100AD000026942F0020202614161016941F00101D3
:100AE000016110BD1000002040420F00AE00002048
:100AF00070B54FF0E02500216C69094AAB691278A6
:100B00005043AA699A42FCD002D2A3EB020302E04E
:100B1000A4EB02063344194413468142F1D370BD5D
:100B2000AE00002070B5054600244FF47A7603E04D
:100B30003046FFF7DDFF641CAC42F9D370BD000006
:100B400004490A885206FCD5024AC1B2121D11801E
:100B50007047000000380140134C144DD4F80C01CC
:100B600001280FD10A2000F06BFFD4F80C010128F6
:100B700008D1686801F000F9A86801F0FDF81420B8
:100B800000F05EFFD4F80C010028E7D10A2000F045
:100B900057FFD4F80C010028E0D1686801F052F842
:100BA000142000F04DFFD9E7000021420000002092
:100BB0001CB54FF44070FFF7D1FCFFF775FF4FF401
:100BC000165000F065FD0020FFF74CFCFFF7B2FB6C
:100BD00006490120CDE900010023802204A1074835
:100BE00001F0C2FC01F07EF800201CBD00000020D6
:100BF00073746172745F7461736B0000D1150008C7
:100C00002DE9F041184E0F460446F5683068001D86
:100C100000F088FD38B9306890F82C100120884029
:100C2000316981433161601C07D137B13168BDE85A
:100C3000F0410E48091D00F0AEBD30682C44AC42B6
:100C40004460316805D2B06BBDE8F041091D00F089
:100C50008ABD706B091D00F086FDB06A844200D227
:100C6000B462BDE8F081000038000020C803002015
:100C70002DE9F041054600F09BFD2D4EB068401C6B
:100C8000B06030682B4F10B1706930B32BE0356025
:100C9000B068012827D1002404EB840007EB800012
:100CA00000F053FD641C202CF6D3234800F04DFDCA
:100CB0002148143000F049FD1F48283000F045FD60
:100CC0001D483C3000F041FD1B48503000F03DFD18
:100CD000194870631430B06305E03068E96AC06A8F
:100CE000884200D83560706A0121401C70626864D7
:100CF000E86A326981401143316100EB800007EB03
:100D00008000291D00F047FD00F08EFD706900286D
:100D10000CD03068E96AC06A884207D207494FF0B0
:100D200080500860BFF34F8FBFF36F8FBDE8F08135
:100D300038000020F80000207803002004ED00E0D7
:100D400010B500F035FD0E4C2068A0B90D4800F03C
:100D5000FCFC0C48143000F0F8FC0A48E060143049
:100D6000206100221021052001F04AF9206010B115
:100D700005A100F031FEBDE8104000F055BD0000B7
:100D800074000020DC030020546D7251000000004C
:100D900030B4026C0B46002A0BD0C1681144C1600C
:100DA0004468A14201D30168C16030BC1846FFF716
:100DB00007BA30BC70472DE9F041856B17460446F1
:100DC0000026026C82B1C7B1E068FFF7F9F9E1686B
:100DD000206C091AE1602268914202D26168081A07
:100DE000E060022F16D017E02068A8B9606801F013
:100DF0006FFC0646002060600EE0A068FFF7E0F997
:100E0000216CA0680844A0606168884204D320680F
:100E1000A06001E005B16D1E6D1CA5633046BDE804
:100E2000F08110B50446006B00F030FD2046BDE8AF
:100E3000104000F02BBD000010484FF470514207E5
:100E400006D0C01D0D4920F00700411AC1F57051B0
:100E50000B4A00230144C2E900030839103A21F08B
:100E6000070111604B600B600B1AC0E9001393601F
:100E70004FF000405360D060704700000404002031
:100E800098000020134E144DA6F52F774FF0805890
:100E9000DFF8489011E000F08BFCF068C468201D7A
:100EA00000F040FCA868401EA8606868401E6860AA
:100EB00000F0BAFC2046FFF7B4FF68680028EAD1CA
:100EC00038680128F9D9C9F80080BFF34F8FBFF304
:100ED0006F8FF2E7B40300203800002004ED00E03B
:100EE0002DE9F047DDE909840E4617468246910058
:100EF0009946089DA522206BFFF774F96FF0030156
:100F0000206B01EB8701084420F00707780705D024
:100F100040F2633219A11EA0FFF7CAFC002022187C
:100F2000315C82F83410315C11B1401C1028F6D3CA
:100F3000002684F84360202D00D31F25E562C4E914
:100F40001356201D00F00CFC04F1180000F008FC02
:100F50002461C5F120006462A061666584F8586070
:100F60004A465146384600F021FB2060B8F1000F98
:100F700001D0C8F80040BDE8F08700002E2E5C4686
:100F800072656552544F535C7461736B732E6300CA
:100F90004572726F723A25732C25640D0A000000A9
:100FA00030B5114900E011460A688242FBD34B6814
:100FB0005C18844203D1406818444860084643687E
:100FC0001C18944209D1084C103C2468A24209D054
:100FD00052681A4442600A6812680260814200D076
:100FE000086030BD0460F9E79800002070B5002467
:100FF00041600B4D0061914206D8D11A826991423D
:1010000006D2011D286907E09A4203D2994201D312
:10101000012403E0011DE86800F0A5FB204670BD37
:101020007400002010B5044600F0C2FBA06B20B194
:10103000002400F0F9FB204610BD0124F9E7000070
:101040002DE9F34100980F460026846C2CB940F638
:10105000253216A11AA0FFF72BFCA06BE16B88428A
:1010600005D340F6263211A115A0FFF721FCA06B95
:10107000E16B88420CD294F945503A4669462046C5
:10108000FFF799FE0646681C05D06D1C84F8455094
:101090003046BDE8FC81606A0028F9D004F12400E4
:1010A00001F070FB0028F3D00126F1E72E2E5C46FC
:1010B00072656552544F535C71756575652E63009A
:1010C0004572726F723A25732C25640D0A00000078
:1010D000F8B5054614480E46C068C068C468201DAF
:1010E00000F020FBE069012817D1A0692B464119C7
:1010F00032462046FFF77AFF78B1002003460146CA
:1011000000902A46204601F0C5FC30B907494FF44B
:10111000F27201F11800FFF7CBFB616A01B02046C3
:10112000BDE8F0400847000074000020F8290008DE
:1011300070B586B02F4E53E00198002806DADDE93D
:101140000301029A90470198002849DB039C6069DB
:1011500010B1201D00F0E6FA05A800F0A7F805463A
:1011600001980A283CD2DFE800F00505053B273846
:1011700005053B270298A169034601442A462046FB
:10118000FFF734FF00282BD0616A20468847E069CA
:10119000012825D1002000900298A169002342185F
:1011A0001946204601F076FCD0B940F2FD2212A18A
:1011B00017A0FFF77DFB13E00298A06128B94FF458
:1011C00045720DA112A0FFF773FBA0692B464119D0
:1011D0001A462046FFF70AFF02E0204600F056FBC1
:1011E000002201A9306801F0CFF80028A4D106B090
:1011F00070BD0000740000202E2E5C4672656552A2
:10120000544F535C74696D6572732E630000000067
:101210004572726F723A25732C25640D0A00000026
:10122000F8B50D46064600F015FE684600F03EF89B
:101230000446009810B101F0F1FAF8BD1148ADB1C3
:1012400001690968D9B10025311B2A46006800F000
:10125000D5FB01F0E3FA0028EFD10B494FF08050A5
:101260000860BFF34F8FBFF36F8FF8BDA642EBD876
:1012700001F0D4FA21463046FFF72AFFF8BD0125D8
:10128000E2E700007400002004ED00E00648416B36
:10129000096829B1416BC968C968496881627047AA
:1012A0004FF0FF31FAE700003800002070B5054626
:1012B00001F094F9064E0446B068844203D200F06F
:1012C00009F8012000E0002028602046B46070BDCD
:1012D00074000020F8B5184E26E0C068C4680568A0
:1012E000201D00F01FFA616A20468847E069012846
:1012F0001AD1A0692844A84206D924616060211D42
:10130000F06800F030FA0FE000200346014600903C
:101310002A46204601F0BEFB30B9084940F26E3241
:1013200001F11800FFF7C4FAF06801680029D4D170
:101330003169C6E90310F8BD74000020F8290008DF
:1013400008484068401C04D0CA2207A111A0FFF73A
:10135000AFFA502080F31188BFF34F8FBFF36F8F28
:10136000FEE70000A00000202E2E5C46726565524C
:10137000544F535C706F727461626C655C5256447A
:10138000535C41524D5F434D335C706F72742E63FA
:10139000000000004572726F723A25732C25640DAF
:1013A0000A00000070B50025040005D140F2CC62AF
:1013B00007A10CA0FFF77CFA0E496069884205D1AD
:1013C000A06A2839884201D000B90125284670BD9D
:1013D0002E2E5C4672656552544F535C7461736B7C
:1013E000732E63004572726F723A25732C25640D5B
:1013F0000A000000C8030020084CE068016839B109
:10140000002139B10020FFF70BFFFFF791FEF4E751
:101410000121F6E7C0680068F5E7000074000020CD
:101420002DE9F041044600F0C3F994F9455004F168
:10143000240610E0A06C20B100212046FFF700FE3A
:1014400004E0606A48B1304601F09CF908B100F050
:101450009BFB6D1E6DB2002DECDC4FF0FF3684F867
:10146000456000F0E1F900F0A3F994F9445004F16B
:10147000100709E0206948B1384601F083F908B146
:1014800000F082FB6D1E6DB2002DF3DC84F8446029
:10149000BDE8F04100F0C8B92DE9F041054600264D
:1014A00000F0D8FC324F386808B9FFF7C5FCF8687F
:1014B00005424FD1002D4DD0083568070BD005F0FF
:1014C0000700C0F108000544680704D0952229A14F
:1014D00032A0FFF7EDF9002D3CD07868854239D86D
:1014E000234910310846046801E02146044660683B
:1014F000A84202D220680028F7D13868B846844252
:1015000028D00E682068086060680836401B1028E4
:101510000ED96719780704D0C22216A11FA0FFF7C1
:10152000C7F96068401B786038466560FFF738FD92
:101530006168D8F804004246401AC8F80400D8F898
:101540000830984200D29060D8F80C000143002087
:10155000C4E9000101F062F9700705D04FF481720F
:1015600004A10EA0FFF7A4F93046BDE8F081000009
:10157000880000202E2E5C4672656552544F535CE5
:10158000706F727461626C655C4D656D4D616E6704
:101590005C686561705F342E630000004572726F95
:1015A000723A25732C25640D0A00000010B5031F44
:1015B0004FF080741C601B1F21F001011960191F7E
:1015C000024B0B60143940380A6010BD411300080B
:1015D0001CB513490220CDE900010023802211A18E
:1015E000134800F0C1FF0E490320091DCDE9000199
:1015F000002380220FA1124800F0B6FF0849042002
:101600000831CDE90001002380220EA1104800F02E
:10161000ABFF0348001F0068BDE81C4000F046BA5D
:10162000040000207461736B315F7461736B0000A0
:10163000551600087461736B325F7461736B000040
:10164000711600086B65795F7461736B00000000B0
:10165000590B0008054C4FF4FA75D4F8A001C143AA
:10166000C4F8A011284600F0EBF9F6E7000021428B
:101670000024064D0126C5F88841FA2000F0E0F963
:10168000C5F88861FA2000F0DBF9F4E70000214298
:1016900070B5054686B0012144F20400FEF768FFEC
:1016A0004FF40070ADF8100003248DF8124018209C
:1016B0001A4E8DF8130004A93046FEF77FFE301550
:1016C000ADF8100004208DF8130004A93046FEF791
:1016D00075FE25208DF814008DF8154000248DF836
:1016E000164001208DF8170005A8FEF705FFADF89C
:1016F0000440ADF80640ADF80840ADF80C400C20B1
:10170000074CADF80A00009569462046FFF774F8CB
:1017100001212046FFF746F806B070BD00080140E1
:1017200000380140D0E9013201699A60D0E9012313
:101730005A604A68824201D182684A60002202618E
:101740000868401E08600868704700F108014FF003
:10175000FF32C0E90112C1600161002101607047E0
:1017600000210161704730B50C68621C02D000F1A5
:10177000080202E0026904E01A4653681D68A542A7
:10178000FAD953684B6099608A60516008610168BA
:10179000491C016030BD42684A6093688B60936861
:1017A0005960916008610168491C01607047000040
:1017B000502080F31188BFF34F8FBFF36F8F09491B
:1017C0004868401C486001280AD10748006810F0AA
:1017D000FF0F05D04FF4B37204A10FA0FFF768B854
:1017E00070470000A000002004ED00E02E2E5C46B3
:1017F00072656552544F535C706F727461626C65B0
:101800005C525644535C41524D5F434D335C706FA4
:1018100072742E63000000004572726F723A257375
:101820002C25640D0A00000010B5084C606828B92A
:1018300040F26D1206A111A0FFF73AF86068401E51
:10184000606001D180F3118810BD0000A00000206D
:101850002E2E5C4672656552544F535C706F7274E5
:1018600061626C655C525644535C41524D5F434D1E
:10187000335C706F72742E63000000004572726FEB
:10188000723A25732C25640D0A00000070B50028FB
:101890002AD0164DA0F108046068E968084205D115
:1018A0004FF48B7212A11CA0FFF702F8206828B138
:1018B00040F217120EA118A0FEF7FAFF6068E9685F
:1018C000084211D02268002A0ED18843606000F0DF
:1018D000C1FA60686968084468602046FFF760FBE9
:1018E000BDE8704000F09ABF70BD00008800002085
:1018F0002E2E5C4672656552544F535C706F727445
:1019000061626C655C4D656D4D616E675C686561BB
:10191000705F342E630000004572726F723A257357
:101920002C25640D0A0000004FF0E0200021016129
:10193000816105494FF47A720968B1FBF2F1491EE1
:1019400041610721016170471000002010B5FEF7CA
:1019500021FC104C10280CD300F1E02090F8F0038B
:101960002178884205D240F2A5220BA115A0FEF7EE
:101970009FFF18480068A16800F4E060884207D91A
:10198000BDE8104040F2B52203A10EA0FEF790BFC3
:1019900010BD0000A00000202E2E5C46726565522E
:1019A000544F535C706F727461626C655C52564444
:1019B000535C41524D5F434D335C706F72742E63C4
:1019C000000000004572726F723A25732C25640D79
:1019D0000A0000000CED00E010B5074B002253F8A0
:1019E00032401CB1521C082AF9D310BD43F8321002
:1019F00003EBC201486010BDB800002070B5154669
:101A00000E460446FFF7D4FE94F944100020491C0A
:101A100001D184F8440094F94510491C01D184F89F
:101A20004500FFF701FFA06B28B92A46314604F1B3
:101A3000240000F0D9F82046BDE87040FFF7F0BC64
:101A400010B5040012D00E49096B29B140F20F52B3
:101A50000CA111A0FEF72CFF00F0FCF9002120469C
:101A6000FFF7CEF800F0DAFE002807D10E494FF05C
:101A700080500860BFF34F8FBFF36F8F10BD000021
:101A8000380000202E2E5C4672656552544F535C20
:101A90007461736B732E63004572726F723A2573B3
:101AA0002C25640D0A00000004ED00E070B504462A
:101AB000FFF77EFE234D04B92C68201DFFF732FE90
:101AC00058B9E06A204A00EB800152F8211021B990
:101AD00001218140286988432861A06A18B104F176
:101AE0001800FFF71FFE686A401C6862286884427D
:101AF00007D1211D1548FFF74EFE6868401C68603D
:101B000007E0A868401EA8602046FFF78AF9FFF7A3
:101B1000BDFBFFF789FE6869002812D0286884425F
:101B20000FD1286B28B140F2A54209A10DA0FEF704
:101B3000BFFE10494FF080500860BFF34F8FBFF3D6
:101B40006F8F70BD38000020F8000020B403002023
:101B50002E2E5C4672656552544F535C7461736BF4
:101B6000732E63004572726F723A25732C25640DD3
:101B70000A00000004ED00E002490A6A0260C96838
:101B8000416070473800002001490120C86170475A
:101B90003800002070B50D46040005D14FF43662C0
:101BA00007A10CA0FEF784FE0E48016820461831FC
:101BB000FFF7D9FD2846BDE870400121FFF720B8A6
:101BC0002E2E5C4672656552544F535C7461736B84
:101BD000732E63004572726F723A25732C25640D63
:101BE0000A0000003800002070B514460E460500BB
:101BF00005D140F68B3209A10DA0FEF759FE104821
:101C0000016828461831FFF7C6FD0CB14FF0FF36CA
:101C100021463046BDE87040FEF7F2BF2E2E5C46EE
:101C200072656552544F535C7461736B732E63001D
:101C30004572726F723A25732C25640D0A000000FC
:101C40003800002070B504002BD01A4D286884425B
:101C50002FD0FFF7ADFD2046FFF7A4FBE8B1201D14
:101C6000FFF760FDE06A01212A6981401143296183
:101C7000114900EB800001EB8000211DFFF78BFD77
:101C8000E06A2968C96A884207D30C494FF080503E
:101C90000860BFF34F8FBFF36F8FBDE87040FFF751
:101CA000C3BDBDE8704040F2F66205A109A0FEF791
:101CB000FFBD70BD38000020F800002004ED00E0FA
:101CC0002E2E5C4672656552544F535C7461736B83
:101CD000732E63004572726F723A25732C25640D62
:101CE0000A0000001CB517480024CDE90040234637
:101CF000822215A1164800F037FC012803D100F01C
:101D00008FFE01280AD0401C1BD102B040F2DC72C9
:101D1000BDE810400FA114A0FEF7CABD502080F30B
:101D20001188BFF34F8FBFF36F8F06484FF0FF311D
:101D30002C38816201214161C460BDE81C4000F083
:101D4000CFB81CBD6400002049444C450000000091
:101D5000850E00082E2E5C4672656552544F535C0A
:101D60007461736B732E63004572726F723A2573E0
:101D70002C25640D0A00000070B50446FFF718FD1D
:101D8000274D04B92C68201DFFF7CCFC58B9E06A38
:101D9000244A00EB800152F8211021B90121814031
:101DA000286988432861A06A18B104F11800FFF778
:101DB000B9FC211D1C48FFF7EEFC94F858000026E2
:101DC000012801D184F85860FFF72EFD686928B119
:101DD000FFF7EEFCFFF75AFAFFF726FD286884426A
:101DE00011D1686980B1286B28B140F2A2620FA1BD
:101DF00013A0FEF75DFD16494FF080500860BFF359
:101E00004F8FBFF36F8F70BD07480068A968884285
:101E100001D12E6070BDBDE8704000F023B8000015
:101E200038000020F8000020C80300202E2E5C4659
:101E300072656552544F535C7461736B732E63000B
:101E40004572726F723A25732C25640D0A000000EA
:101E500004ED00E00248016B491C0163704700007B
:101E60003800002070B5134D286B10B10120E861D7
:101E700070BD0020E86128690F4EB0FA80F0C0F113
:101E80001F0000EB800456F8240028B94FF4356297
:101E90000AA10FA0FEF70CFD06EB840000F108027A
:101EA000416849684160914201D149684160C86810
:101EB000286070BD38000020F80000202E2E5C46FF
:101EC00072656552544F535C7461736B732E63007B
:101ED0004572726F723A25732C25640D0A0000005A
:101EE0007CB52A4D28780190FF20287028788DF83D
:101EF00000009DF800009DF8001000F0F0008842FE
:101F000005D04FF48A7222A12CA0FEF7D1FC9DF8D7
:101F100000002E4C00F0500020700720A06006E06A
:101F2000401EA0609DF8000040008DF800009DF864
:101F300000000006A068F3D403280ED040F2271258
:101F400013A11EA0FEF7B4FCA068032805D04FF42F
:101F500098720FA119A0FEF7ABFC207A000200F4E2
:101F6000E060A060019828701948016841F4700190
:101F70000160016841F070410160FFF7D5FC00206D
:101F80006060FEF7D1F800207CBD000000E400E0B6
:101F90002E2E5C4672656552544F535C706F72749E
:101FA00061626C655C525644535C41524D5F434DD7
:101FB000335C706F72742E63000000004572726FA4
:101FC000723A25732C25640D0A000000A000002041
:101FD00020ED00E010B5502080F31188BFF34F8F43
:101FE000BFF36F8F00F000FB18B104494FF0805031
:101FF0000860002080F3118810BD000004ED00E0AF
:102000002DE9F04117460E46050005D14FF4B67292
:1020100010A115A0FEF74CFCBEB105FB06F0543034
:10202000FFF73AFA04000ED004F154007EB12060AC
:10203000C4E90F562046012100F01EF884F85070C4
:1020400000212046A164BDE8F0810020E7E724607C
:10205000EEE700002E2E5C4672656552544F535CCD
:1020600071756575652E63004572726F723A2573DE
:102070002C25640D0A00000070B50D46040004D143
:10208000FB221DA121A0FEF713FCFFF791FBD4E971
:102090000F20216802FB001161600021A16321680B
:1020A000A1600A46D4E90F01401E00FB0121E16056
:1020B00021464FF0FF3001F8440F487004F1100042
:1020C0004DB1FFF742FB04F12400FFF73EFBFFF7A1
:1020D000ABFB012070BD21690029F8D000F052FB54
:1020E0000028F4D00D494FF080500860BFF34F8FA7
:1020F000BFF36F8FEBE700002E2E5C4672656552D2
:10210000544F535C71756575652E63004572726F2F
:10211000723A25732C25640D0A00000004ED00E0DE
:102120002DE9FF4F83B099468B4604004FF000061F
:1021300005D140F2DB2252A156A0FEF7B9FBBBF15C
:10214000000F07D1206C28B14FF437724CA151A079
:10215000FEF7AEFBB9F1020F08D1E06B012805D004
:1021600040F2DD2246A14BA0FEF7A2FB00F028FAC8
:1021700038B9059828B14FF4387241A145A0FEF74F
:1021800097FB4FF0000A4FF08057DFF81881FFF7F8
:102190000FFBA06BE16B884206D3B9F1020F03D0AD
:1021A000059800B316B325E04A4659462046FEF787
:1021B00002FEA16C21B149462046FEF741FF05E031
:1021C000616A19B104F1240000F0DCFA28B1C8F802
:1021D0000070BFF34F8FBFF36F8FFFF725FB012018
:1021E00007B0BDE8F08FFFF71FFB21E06846FFF75F
:1021F000C3FC0126FFF718FBFFF72CFEFFF7D8FA08
:1022000094F94400401C01D184F844A094F945009D
:10221000401C01D184F845A0FFF706FB05A96846DC
:1022200000F05AF930B12046FFF7FAF800F0F6FA5C
:102230000020D5E7FFF7BCFAA06BE16B884201D123
:10224000012500E00025FFF7EFFA95B104F1100039
:102250000599FFF79FFC2046FFF7E2F800F0DEFA51
:10226000002894D1C8F80070BFF34F8FBFF36F8F71
:102270008DE72046FFF7D4F800F0D0FA87E700009A
:102280002E2E5C4672656552544F535C71756575B0
:10229000652E63004572726F723A25732C25640DAA
:1022A0000A00000004ED00E02DE9F04798461546CD
:1022B0008946040005D140F2A1322AA12EA0FEF7E2
:1022C000F7FAB9F1000F07D1206C28B140F2A23221
:1022D00024A129A0FEF7ECFAB8F1020F08D1E06BB7
:1022E000012805D040F2A3321EA123A0FEF7E0FA98
:1022F000FFF72CFB5020EFF3118780F31188BFF319
:102300004F8FBFF36F8FA06BE16B884207D3B8F19B
:10231000020F04D0002087F31188BDE8F08794F9FC
:102320004560424649462046FEF745FD701C04D0F4
:10233000761C84F845600120EDE7A06C012620B1F1
:1023400041462046FEF77CFE06E0606A0028F2D097
:1023500004F1240000F016FA0028ECD0002DEAD099
:102360002E60E8E72E2E5C4672656552544F535C32
:1023700071756575652E63004572726F723A2573CB
:102380002C25640D0A0000002DE9F74783B08A462A
:1023900004004FF0000605D140F2DE4244A149A0FE
:1023A000FEF786FABAF1000F07D1206C28B140F28F
:1023B000E2423FA143A0FEF77BFA00F001F938B9F1
:1023C000059828B140F2E74239A13EA0FEF770FA25
:1023D00000274FF08058DFF8FC90FFF7E9F9A56B74
:1023E000C5B151462046FEF7D3FC6D1EA56320699A
:1023F00050B104F1100000F0C5F928B1C9F800800F
:10240000BFF34F8FBFF36F8FFFF70EFA012006B0B7
:10241000BDE8F087059808B11EB106E0FFF704FAA1
:1024200027E06846FFF7A8FB0126FFF7FDF9FFF755
:1024300011FDFFF7BDF994F94400401C01D184F867
:10244000447094F94500401C01D184F84570FFF7B1
:10245000EBF905A9684600F03FF8002820460AD0AD
:10246000FEF7DEFF00F0DAF92046FEF7DBFD00287C
:10247000B3D00020CBE7FEF7D5FD90B104F12400E6
:102480000599FFF787FB2046FEF7CAFF00F0C6F963
:102490000028A2D1C9F80080BFF34F8FBFF36F8F20
:1024A0009BE72046FEF7BCFF00F0B8F995E7000077
:1024B0002E2E5C4672656552544F535C717565757E
:1024C000652E63004572726F723A25732C25640D78
:1024D0000A00000004ED00E02DE9F0410C46050083
:1024E00005D140F6264216A11AA0FEF7E1F92CB953
:1024F00040F6274212A117A0FEF7DAF9FFF758F9C4
:10250000184EF1686B682268C81A571C07D02F68EC
:10251000366AB74209D08B4207D8012400E0002474
:10252000FFF782F92046BDE8F081824205D9101AF2
:1025300020602846FFF720FBF1E700202060ECE751
:102540002E2E5C4672656552544F535C7461736BFA
:10255000732E63004572726F723A25732C25640DD9
:102560000A000000380000202DE9FF5F8346DDE906
:102570000E87994616468A469000FEF78DFF0500A5
:102580001AD05C20FEF788FF040012D025630021DA
:10259000CDE90241CDE900874B46324651465846C7
:1025A000FEF79EFC2046FEF763FB012004B0BDE869
:1025B000F09F2846FFF76AF94FF0FF30F6E700007A
:1025C0000548416919B1006B18B10020704701201E
:1025D0007047022070470000380000200148C068A2
:1025E00070470000380000202DE9F0412D4F0026F3
:1025F000386B40B1B869401CB861F86900B1012678
:102600003046BDE8F081FD686D1CFD6011D1786B2E
:10261000006828B140F6332223A128A0FEF748F92C
:10262000786BB96B7963B863386A401C3862FEF71F
:102630002DFEB86ADFF89480854209D3786B006874
:1026400080B1786BC068C468606885420DD2B8629A
:102650003868C06A00EB800158F821000128CCD905
:102660000126CAE74FF0FF30F1E7201DFFF75AF8C7
:10267000A06A18B104F11800FFF754F8E06A0121CC
:102680003A6981401143396100EB800108EB810018
:10269000211DFFF780F8E06A3968C96A8842CDD306
:1026A0000126CBE7380000202E2E5C46726565526D
:1026B000544F535C7461736B732E63004572726F79
:1026C000723A25732C25640D0A000000F8000020E2
:1026D00070B504004FF000063CD01F4D28688442BE
:1026E00005D040F63B721DA121A0FEF7E1F8206D58
:1026F00028B940F63C7219A11DA0FEF7D9F8206D4B
:10270000401E2065E26CE16A914223D010BB201D7F
:10271000FFF708F81A49012250B9E06A00EB80037C
:1027200051F8233023B92B6902FA00F083432B615F
:10273000E06CE062C0F12000A061E06A2B69824099
:102740001A432A6100EB800001EB8000211DFFF796
:1027500022F80126304670BD380000202E2E5C463F
:1027600072656552544F535C7461736B732E6300D2
:102770004572726F723A25732C25640D0A000000B1
:10278000F80000202DE9F041C068C4682CB940F67B
:10279000BB3216A11AA0FEF78BF804F11800074609
:1027A000FEF7C0FF1A4D286B012660B13946194863
:1027B000FEF7F1FFE06A2968C96A884213D901204F
:1027C000EE61BDE8F081201DFEF7ACFFE06A2A69EA
:1027D00006FA00F1114329610F4900EB800001EB7B
:1027E0008000211DE4E70020EBE700002E2E5C4670
:1027F00072656552544F535C7461736B732E630042
:102800004572726F723A25732C25640D0A00000020
:1028100038000020A0030020F80000202DE9F04738
:102820002B4D00242746286B28B94FF4046229A1B8
:102830002DA0FEF73DF8FEF7BBFF286B401E286376
:10284000286BE8BBA8682C490126C8B3A1F52A79F2
:102850008846D8F80010E9B1D8F80C00C46804F133
:102860001800FEF75FFF201DFEF75CFFE06A2A6993
:1028700006FA00F11143296100EB800109EB8100A8
:10288000211DFEF788FFE06A2968C96A8842E0D303
:10289000EE61DEE70CB1FEF7F9FCAC693CB1FFF785
:1028A000A3FE00B1EE61641EF9D10020A861E869C1
:1028B00030B11249012738070860BFF34F8F00E09D
:1028C00001E0BFF36F8FFEF7AFFF3846BDE8F0873A
:1028D000380000202E2E5C4672656552544F535CC2
:1028E0007461736B732E63004572726F723A257355
:1028F0002C25640D0A000000A003002004ED00E078
:102900002DE9F0410026040005D140F22D721BA1F3
:102910001FA0FDF7CDFFFFF719F85020EFF3118549
:1029200080F31188BFF34F8FBFF36F8F2046FEF700
:1029300039FDE8B11A4F386B18B104F11801194884
:1029400014E0E06A3968C96A884200D30126201D74
:10295000FEF7E8FEE06A01213A69814011433961DE
:10296000114900EB800001EB8000211DFEF713FFF1
:1029700085F311883046BDE8F08100002E2E5C46BC
:1029800072656552544F535C7461736B732E6300B0
:102990004572726F723A25732C25640D0A0000008F
:1029A00038000020A0030020F80000202DE9F047A7
:1029B0000746994616460D462C20DDF820A0FEF766
:1029C0006BFD040014D0B8464F46D1462DB94FF4E4
:1029D000B47209A10EA0FDF76BFFFEF7B1F904F187
:1029E0001801C4F8008081E8E002201DFEF7B8FE5F
:1029F0002046BDE8F08700002E2E5C4672656552C9
:102A0000544F535C74696D6572732E63000000004F
:102A10004572726F723A25732C25640D0A0000000E
:102A20001CB50024FEF78CF90C48006868B10B490E
:102A30001F20091DCDE9000100234FF4827208A177
:102A40000948FFF791FD040005D140F20F1207A1DC
:102A50000CA0FDF72DFF20461CBD000074000020D7
:102A6000546D722053766300F91300082E2E5C46D5
:102A700072656552544F535C74696D6572732E6351
:102A8000000000004572726F723A25732C25640DA8
:102A90000A0000002DE9FF47DDF830A09946904676
:102AA0000D4606004FF0000705D14FF4C17212A188
:102AB00017A0FDF7FDFE1A4C206880B1CDE9005843
:102AC0000296062D11DAFFF77BFD02284FF0000376
:102AD00009D0002269462068FFF722FB074604B0B0
:102AE0003846BDE8F0875246F4E700234A46694677
:102AF000FFF7DAFBF2E700002E2E5C4672656552A6
:102B0000544F535C74696D6572732E63000000004E
:102B10004572726F723A25732C25640D0A0000000D
:102B200074000020442B000800000020B8000000C2
:102B3000D0080008FC2B0008B80000201844000052
:102B4000E008000800000000000000000000000095
:102B50000000000000A24A04000000000000000085
:102B60000102030406070809020406080000000029
:102B70000102030401020304060708090000000023
:102B80000000000000000000000000000000000045
:102B90000000000000000000000000000000000035
:102BA0000000000000000000000000000000000025
:102BB0000000000000000000000000000000000015
:102BC0000000000000000000000000000000000005
:102BD00000000000000000000000000000000000F5
:102BE0000000000000000000AAAAAAAA000000003D
:0C2BF000000000000000000000000000D9
:04000005080000ED02
:00000001FF
