:020000040800F2
:10000000B84400209D010008830300080103000894
:1000100081030008590200087F0500080000000065
:1000200000000000000000000000000005010008C2
:100030005B0200080000000049010008710400088C
:10004000B7010008B7010008B7010008B7010008B0
:10005000B7010008B7010008B7010008B7010008A0
:10006000B7010008B7010008B7010008B701000890
:10007000B7010008B7010008B7010008B701000880
:10008000B7010008B7010008B7010008B701000870
:10009000B7010008B7010008B7010008B701000860
:1000A000B7010008B7010008B7010008B701000850
:1000B000B7010008B7010008B7010008B701000840
:1000C000B7010008B7010008B7010008B701000830
:1000D000B7010008D5040008B7010008B7010008FF
:1000E000B7010008B7010008B7010008DFF810D019
:1000F00000F0A0F800480047D9070008AFF30080DF
:10010000B8440020224B19680868B0E8F00F80F36B
:100110000988BFF36F8F4FF0000080F311884EF015
:100120000D0E70470000000006480068006880F36C
:10013000088862B661B6BFF34F8FBFF36F8F00DFE1
:1001400000BF00BF08ED00E0EFF30980BFF36F8F41
:100150000F4B1A6820E9F00F106008B54FF05000FF
:1001600080F31188BFF34F8FBFF36F8F01F04CFB0B
:100170004FF0000080F31188BDE808401968086856
:10018000B0E8F00F80F30988BFF36F8F704700BFAE
:1001900020000020EFF305807047000006488047EC
:1001A00006480047FEE7FEE7FEE7FEE7FEE7FEE75C
:1001B000FEE7FEE7FEE7FEE785040008ED00000825
:1001C00040EA01039B0703D009E008C9121F08C0D9
:1001D000042AFAD203E011F8013B00F8013B521E59
:1001E000F9D27047D2B201E000F8012B491EFBD2D0
:1001F00070470022F6E710B513460A460446194632
:10020000FFF7F0FF204610BD30B50B460146002039
:100210002022012409E021FA02F59D4205D303FAC8
:1002200002F5491B04FA02F52844151EA2F1010249
:10023000F1DC30BD064C074D06E0E06840F00103FC
:1002400094E8070098471034AC42F6D3FFF752FF0A
:100250001C2400083C240008FEE77047F0B5CC7869
:10026000002204F00F03E40601D58C7823430C78B8
:100270004FF00F0C14F0FF0F4FF0010E1BD005686C
:100280000E880EFA02F42640A64210D196000CFA0F
:1002900006F725EA070703FA06F5CE783D43282E30
:1002A00002D0482E02D002E0446100E00461521CFA
:1002B000082AE5D305600A88FF2A1CD94468002271
:1002C00002F108060EFA06F50E882E40AE420ED157
:1002D00096000CFA06F7BC4303FA06F7CE783C43C7
:1002E000282E00D14561CE78482E00D10561521CE0
:1002F000082AE5D34460F0BD416170470161704751
:10030000FEE700002DE9F84304460121102000F02B
:1003100043F80121042000F03FF810268DF8036017
:100320007702DFF85480ADF8007003258DF8025095
:1003300069464046FFF792FF8DF803604FF48276DE
:10034000ADF800608DF802500C4D69462846FFF765
:1003500085FF31462846FFF7CFFF012C07D0002C40
:1003600003D139464046FFF7C9FFBDE8F883394657
:100370004046FFF7C1FFF8E70010014000080140C8
:10038000FEE77047024908430249086070470000D1
:100390000000FA050CED00E0044A0029916901D043
:1003A000014300E08143916170470000001002406A
:1003B0000CB50022264800920192016841F4803178
:1003C00001604FF4A063016801F4003101910099CC
:1003D000491C0091019911B900999942F3D1016822
:1003E000890333D5012101911A490A6842F01002AC
:1003F0000A600A6822F003020A600A6842F00202F8
:100400000A604168416041684160416841F480612F
:100410004160416821F47C114160416841F4E81178
:100420004160016841F08071016001688901FCD57B
:10043000416821F003014160416841F002014160DF
:100440004168C1F381010229FAD10CBD01920CBDB2
:1004500000100240002002404FF0E021042808690B
:1004600003D020F004000861704740F00400FAE770
:1004700010B501F077FD012803D0BDE8104001F070
:100480007BBA10BD0F4810B5016841F00101016051
:1004900041680D4A1140416001680C4A11400160F9
:1004A000016821F480210160416821F4FE0141606E
:1004B0004FF41F018160FFF77BFF05494FF000609B
:1004C000086010BD001002400000FFF8FFFFF6FEBC
:1004D00008ED00E070B5154C40F22551204600F0C3
:1004E0002BF800280ED0204600F045F8104AC1B283
:1004F0001088030406D444044FF0000306D50A29EB
:1005000001D0138070BD40F400400DE00D2909D0EA
:10051000C0F30D04074D401C80B229551080C72838
:10052000EFD870BD40F48040108070BD00380140AD
:1005300094000020EC3F002070B501F01F0501265B
:100540000024C1F3421306FA05F2012B0FD0022B4F
:100550000FD0838A4FEA11210088134206FA01F670
:1005600000EA060001D000B10124204670BD838955
:10057000F0E7038AEEE78088C0F308007047FEE7E3
:100580000FB4054B10B503A9044A029800F018F8FF
:1005900010BC5DF814FB0000C107000898000020A3
:1005A00002E008C8121F08C1002AFAD1704770473C
:1005B000002001E001C1121F002AFBD1704700009A
:1005C0002DE9FF4F8BB09A460F460546002606E000
:1005D00025280BD052460D9990476D1C761C287823
:1005E0000028F5D10FB03046BDE8F08F0024A046BA
:1005F0000122604900E0044315F8013F203B02FA64
:1006000003F00842F7D128782E2817D115F8010FEA
:1006100044F004042A280ED06FF02F022878A0F1AD
:10062000300109290AD808EB880102EB410100EBEF
:1006300001086D1CF2E757F8048B6D1C28786928B7
:100640003ED006DC0028CDD063280BD0642804D12E
:1006500036E0732810D075284BD052460D9990473C
:10066000761C85E017F8040B8DF8000000208DF84B
:100670000100E946012003E057F8049B4FF0FF30EA
:1006800061074FF0000401D40AE0641C44450DDA10
:100690008442FADB19F804100029F6D106E0641C44
:1006A0008442FCDB19F804100029F8D1264404E048
:1006B00019F8010B52460D999047641EF8D257E085
:1006C00001CF4FF00A0B002802DA40422D2102E050
:1006D000210504D52B218DF82410012103E0E10729
:1006E00005D02021F7E70DF1200908910CE0002149
:1006F000F9E701CF4FF00A0BF9E75946FFF784FD00
:1007000001F1300209F8012D0028F6D1ADEB090006
:1007100000F1200B600701D44FF00108D84502DD3D
:10072000A8EB0B0000E000208046002406E009A8AA
:100730005246005D0D999047641C761C08988442CF
:10074000F5DB04E0302052460D999047761CB8F155
:100750000001A8F10108F5DC05E019F8010B52468B
:100760000D999047761CBBF10001ABF1010BF4DC55
:100770006D1C34E70928010010B50420FFF76CFE5A
:100780000C480D490D4A0068B0FBF1F3B0FBF1F1E4
:100790004FF47A7041431370012050804FF0E020F5
:1007A000026942F0020202614161016941F0010106
:1007B000016110BD0C00002040420F009C00002091
:1007C00004490A885206FCD5024AC1B2121D1180A2
:1007D00070470000003801401CB54FF44070FFF72F
:1007E000D1FDFFF7C9FF0020FFF78CFD064901206E
:1007F000CDE900010023782204A1074801F086FB1F
:1008000000F0B0FF00201CBD000000207374617276
:10081000745F7461736B0000991100082DE9F04159
:10082000184E0F460446F5683068001D00F00AFDBA
:1008300038B9306890F82C10012088403169814324
:100840003161601C07D137B13168BDE8F0410E4815
:10085000091D00F030BD30682C44AC424460316862
:1008600005D2B06BBDE8F041091D00F00CBD706B06
:10087000091D00F008FDB06A844200D2B462BDE8F0
:10088000F081000020000020B00300202DE9F0419D
:10089000054600F01DFD2D4EB068401CB06030686C
:1008A0002B4F10B1706930B32BE03560B068012870
:1008B00027D1002404EB840007EB800000F0D5FC76
:1008C000641C202CF6D3234800F0CFFC21481430C0
:1008D00000F0CBFC1F48283000F0C7FC1D483C301E
:1008E00000F0C3FC1B48503000F0BFFC1948706397
:1008F0001430B06305E03068E96AC06A884200D805
:100900003560706A0121401C70626864E86A32696F
:1009100081401143316100EB800007EB8000291D0D
:1009200000F0C9FC00F010FD706900280CD03068A0
:10093000E96AC06A884207D207494FF080500860D0
:10094000BFF34F8FBFF36F8FBDE8F0812000002011
:10095000E00000206003002004ED00E010B500F08E
:10096000B7FC0E4C2068A0B90D4800F07EFC0C4886
:10097000143000F07AFC0A48E06014302061002254
:100980001021052001F00EF8206010B105A100F043
:10099000B3FDBDE8104000F0D7BC00005C000020B3
:1009A000C4030020546D72510000000030B4026C8A
:1009B0000B46002A0BD0C1681144C1604468A142B3
:1009C00001D30168C16030BC1846FFF7F9BB30BCE9
:1009D00070472DE9F041856B174604460026026CEE
:1009E00082B1C7B1E068FFF7EBFBE168206C091A40
:1009F000E1602268914202D26168081AE060022F29
:100A000016D017E02068A8B9606801F033FB0646ED
:100A1000002060600EE0A068FFF7D2FB216CA068A8
:100A20000844A0606168884204D32068A06001E0A7
:100A300005B16D1E6D1CA5633046BDE8F08110B593
:100A40000446006B00F0B2FC2046BDE8104000F008
:100A5000ADBC000010484FF47051420706D0C01DD5
:100A60000D4920F00700411AC1F570510B4A0023CF
:100A70000144C2E900030839103A21F0070111606E
:100A80004B600B600B1AC0E9001393604FF00040FD
:100A90005360D06070470000EC030020800000200D
:100AA000134E144DA6F52F774FF08058DFF848907D
:100AB00011E000F00DFCF068C468201D00F0C2FBDE
:100AC000A868401EA8606868401E686000F03CFC92
:100AD0002046FFF7B4FF68680028EAD1386801288B
:100AE000F9D9C9F80080BFF34F8FBFF36F8FF2E7DA
:100AF0009C0300202000002004ED00E02DE9F047D9
:100B0000DDE909840E461746824691009946089D04
:100B1000A522206BFFF766FB6FF00301206B01EB52
:100B20008701084420F00707780705D040F26332B8
:100B300019A11EA0FFF724FD00202218315C82F8C5
:100B40003410315C11B1401C1028F6D3002684F813
:100B50004360202D00D31F25E562C4E91356201DF4
:100B600000F08EFB04F1180000F08AFB2461C5F14F
:100B700020006462A061666584F858604A46514668
:100B8000384600F0F7FA2060B8F1000F01D0C8F83D
:100B90000040BDE8F08700002E2E5C46726565526D
:100BA000544F535C7461736B732E63004572726FA4
:100BB000723A25732C25640D0A00000030B51149E6
:100BC00000E011460A688242FBD34B685C188442FD
:100BD00003D1406818444860084643681C18944292
:100BE00009D1084C103C2468A24209D052681A442A
:100BF00042600A6812680260814200D0086030BD1D
:100C00000460F9E78000002070B5002441600B4DBE
:100C10000061914206D8D11A8269914206D2011D23
:100C2000286907E09A4203D2994201D3012403E0E4
:100C3000011DE86800F027FB204670BD5C00002025
:100C400010B5044600F044FBA06B20B1002400F076
:100C50007BFB204610BD0124F9E700002DE9F3419C
:100C600000980F460026846C2CB940F6253216A158
:100C70001AA0FFF785FCA06BE16B884205D340F614
:100C8000263211A115A0FFF77BFCA06BE16B884217
:100C90000CD294F945503A4669462046FFF799FE32
:100CA0000646681C05D06D1C84F845503046BDE8EA
:100CB000FC81606A0028F9D004F1240001F034FAC4
:100CC0000028F3D00126F1E72E2E5C4672656552AE
:100CD000544F535C71756575652E63004572726F74
:100CE000723A25732C25640D0A000000F8B50546FC
:100CF00014480E46C068C068C468201D00F0A2FAFF
:100D0000E069012817D1A0692B46411932462046D7
:100D1000FFF77AFF78B100200346014600902A468B
:100D2000204601F033FB30B907494FF4F27201F16C
:100D30001800FFF725FC616A01B02046BDE8F040CD
:100D4000084700005C000020F022000870B586B063
:100D50002F4E53E00198002806DADDE90301029ADC
:100D600090470198002849DB039C606910B1201D61
:100D700000F068FA05A800F0A7F8054601980A28CF
:100D80003CD2DFE800F00505053B273805053B2789
:100D90000298A169034601442A462046FFF734FF22
:100DA00000282BD0616A20468847E069012825D1B8
:100DB000002000900298A16900234218194620469D
:100DC00001F0E4FAD0B940F2FD2212A117A0FFF71A
:100DD000D7FB13E00298A06128B94FF445720DA12A
:100DE00012A0FFF7CDFBA0692B4641191A462046F9
:100DF000FFF70AFF02E0204600F0D8FA002201A91E
:100E0000306800F093FF0028A4D106B070BD000048
:100E10005C0000202E2E5C4672656552544F535C78
:100E200074696D6572732E63000000004572726F05
:100E3000723A25732C25640D0A000000F8B50D46A2
:100E4000064600F0D9FC684600F03EF804460098DB
:100E500010B101F0B5F9F8BD1148ADB101690968EB
:100E6000D9B10025311B2A46006800F057FB01F07C
:100E7000A7F90028EFD10B494FF080500860BFF36D
:100E80004F8FBFF36F8FF8BDA642EBD801F098F9F2
:100E900021463046FFF72AFFF8BD0125E2E70000B2
:100EA0005C00002004ED00E00648416B096829B1B0
:100EB000416BC968C9684968816270474FF0FF316A
:100EC000FAE700002000002070B5054601F058F850
:100ED000064E0446B068844203D200F009F80120AF
:100EE00000E0002028602046B46070BD5C00002057
:100EF000F8B5184E26E0C068C4680568201D00F0EB
:100F0000A1F9616A20468847E06901281AD1A069E1
:100F10002844A84206D924616060211DF06800F0D1
:100F2000B2F90FE000200346014600902A46204611
:100F300001F02CFA30B9084940F26E3201F1180084
:100F4000FFF71EFBF06801680029D4D13169C6E9BA
:100F50000310F8BD5C000020F0220008084840683B
:100F6000401C04D0CA2207A111A0FFF709FB5020A2
:100F700080F31188BFF34F8FBFF36F8FFEE7000040
:100F8000880000202E2E5C4672656552544F535CDB
:100F9000706F727461626C655C525644535C41526E
:100FA0004D5F434D335C706F72742E630000000020
:100FB0004572726F723A25732C25640D0A00000089
:100FC000084CE068016839B1002139B10020FFF711
:100FD00035FFFFF7BBFEF4E70121F6E7C0680068C4
:100FE000F5E700005C0000202DE9F041044600F028
:100FF0006FF994F9455004F1240610E0A06C20B17B
:1010000000212046FFF72AFE04E0606A48B130461E
:1010100001F08AF808B100F047FB6D1E6DB2002D9B
:10102000ECDC4FF0FF3684F8456000F08DF900F0FD
:101030004FF994F9445004F1100709E0206948B1D0
:10104000384601F071F808B100F02EFB6D1E6DB24C
:10105000002DF3DC84F84460BDE8F04100F074B981
:101060002DE9F0410546002600F0C6FB324F3868F6
:1010700008B9FFF7EFFCF86805424FD1002D4DD0BD
:10108000083568070BD005F00700C0F108000544DB
:10109000680704D0952229A132A0FFF771FA002D2C
:1010A0003CD07868854239D8234910310846046815
:1010B00001E0214604466068A84202D22068002868
:1010C000F7D13868B846844228D00E682068086096
:1010D00060680836401B10280ED96719780704D0BD
:1010E000C22216A11FA0FFF74BFA6068401B786070
:1010F00038466560FFF762FD6168D8F80400424633
:10110000401AC8F80400D8F80830984200D290601D
:10111000D8F80C0001430020C4E9000101F050F8A8
:10112000700705D04FF4817204A10EA0FFF728FAD2
:101130003046BDE8F0810000700000202E2E5C4695
:1011400072656552544F535C706F727461626C6566
:101150005C4D656D4D616E675C686561705F342ED6
:10116000630000004572726F723A25732C25640D7E
:101170000A00000010B5031F4FF080741C601B1F95
:1011800021F001011960191F024B0B60143940381E
:101190000A6010BD5D0F00081CB50E490220CDE9A4
:1011A0000001002364220CA10E4800F0AFFE0949A3
:1011B0000320091DCDE90001002364220AA10B4888
:1011C00000F0A4FE0348001F0068BDE81C4000F0CA
:1011D000FDB90000040000207461736B315F74611D
:1011E000736B0000F11100080000000025120008D8
:1011F00000240A4E0A4D4FF4FA7702E0B06800F07E
:10120000E5F9D5F8A001C043C5F8A001641CE4B21B
:10121000384600F0A5F9052CF3D1EFE700000020D7
:10122000000021420024064D0126C5F88841FA201D
:1012300000F096F9C5F88861FA2000F091F9F4E71A
:1012400000002142D0E9013201699A60D0E901230E
:101250005A604A68824201D182684A600022026173
:101260000868401E08600868704700F108014FF0E8
:10127000FF32C0E90112C1600161002101607047C5
:1012800000210161704730B50C68621C02D000F18A
:10129000080202E0026904E01A4653681D68A5428C
:1012A000FAD953684B6099608A605160086101689F
:1012B000491C016030BD42684A6093688B60936846
:1012C0005960916008610168491C01607047000025
:1012D000502080F31188BFF34F8FBFF36F8F094900
:1012E0004868401C486001280AD10748006810F08F
:1012F000FF0F05D04FF4B37204A10FA0FFF740B960
:10130000704700008800002004ED00E02E2E5C46AF
:1013100072656552544F535C706F727461626C6594
:101320005C525644535C41524D5F434D335C706F89
:1013300072742E63000000004572726F723A25735A
:101340002C25640D0A00000010B5084C606828B90F
:1013500040F26D1206A111A0FFF712F96068401E5D
:10136000606001D180F3118810BD0000880000206A
:101370002E2E5C4672656552544F535C706F7274CA
:1013800061626C655C525644535C41524D5F434D03
:10139000335C706F72742E63000000004572726FD0
:1013A000723A25732C25640D0A00000070B50028E0
:1013B0002AD0164DA0F108046068E968084205D1FA
:1013C0004FF48B7212A11CA0FFF7DAF8206828B145
:1013D00040F217120EA118A0FFF7D2F86068E96872
:1013E000084211D02268002A0ED18843606000F0C4
:1013F00003FA60686968084468602046FFF7DEFB0E
:10140000BDE8704000F0DCBE70BD00007000002040
:101410002E2E5C4672656552544F535C706F727429
:1014200061626C655C4D656D4D616E675C686561A0
:10143000705F342E630000004572726F723A25733C
:101440002C25640D0A0000004FF0E020002101610E
:10145000816105494FF47A720968B1FBF2F1491EC6
:1014600041610721016170470C00002010B5FEF7B3
:1014700091FE104C10280CD300F1E02090F8F003FE
:101480002178884205D240F2A5220BA115A0FFF7D2
:1014900077F818480068A16800F4E060884207D92E
:1014A000BDE8104040F2B52203A10EA0FFF768B8D6
:1014B00010BD0000880000202E2E5C46726565522B
:1014C000544F535C706F727461626C655C52564429
:1014D000535C41524D5F434D335C706F72742E63A9
:1014E000000000004572726F723A25732C25640D5E
:1014F0000A0000000CED00E010B5074B002253F885
:1015000032401CB1521C082AF9D310BD43F83210E6
:1015100003EBC201486010BDA000002070B5154665
:101520000E460446FFF7D4FE94F944100020491CEF
:1015300001D184F8440094F94510491C01D184F884
:101540004500FFF701FFA06B28B92A46314604F198
:10155000240000F0D9F82046BDE87040FFF744BDF4
:1015600010B5040012D00E49096B29B140F20F5298
:101570000CA111A0FFF704F800F03EF9002120466D
:10158000FFF74CF900F01CFE002807D10E494FF080
:1015900080500860BFF34F8FBFF36F8F10BD000006
:1015A000200000202E2E5C4672656552544F535C1D
:1015B0007461736B732E63004572726F723A257398
:1015C0002C25640D0A00000004ED00E070B504460F
:1015D000FFF77EFE234D04B92C68201DFFF732FE75
:1015E00058B9E06A204A00EB800152F8211021B975
:1015F00001218140286988432861A06A18B104F15B
:101600001800FFF71FFE686A401C68622868844261
:1016100007D1211D1548FFF74EFE6868401C686021
:1016200007E0A868401EA8602046FFF708FAFFF709
:101630003BFCFFF789FE6869002812D028688442C5
:101640000FD1286B28B140F2A54209A10DA0FEF7E9
:1016500097FF10494FF080500860BFF34F8FBFF3E2
:101660006F8F70BD20000020E00000209C03002050
:101670002E2E5C4672656552544F535C7461736BD9
:10168000732E63004572726F723A25732C25640DB8
:101690000A00000004ED00E002490A6A0260C9681D
:1016A000416070472000002001490120C861704757
:1016B0002000002070B50D46040005D14FF43662BD
:1016C00007A10CA0FEF75CFF0E4801682046183108
:1016D000FFF7D9FD2846BDE870400121FFF79EB80D
:1016E0002E2E5C4672656552544F535C7461736B69
:1016F000732E63004572726F723A25732C25640D48
:101700000A0000002000002070B514460E460500B7
:1017100005D140F68B3209A10DA0FEF731FF10482C
:10172000016828461831FFF7C6FD0CB14FF0FF36AF
:1017300021463046BDE87040FFF770B82E2E5C465B
:1017400072656552544F535C7461736B732E630002
:101750004572726F723A25732C25640D0A000000E1
:10176000200000201CB517480024CDE90040234686
:10177000822215A1164800F0C9FB012803D100F010
:10178000CBFD01280AD0401C1BD102B040F2DC7214
:10179000BDE810400FA114A0FEF7F2BE502080F368
:1017A0001188BFF34F8FBFF36F8F06484FF0FF31A3
:1017B0002C38816201214161C460BDE81C4000F009
:1017C00061B81CBD4C00002049444C45000000009D
:1017D000A10A00082E2E5C4672656552544F535C78
:1017E0007461736B732E63004572726F723A257366
:1017F0002C25640D0A0000000248016B491C01639E
:10180000704700002000002070B5134D286B10B108
:101810000120E86170BD0020E86128690F4EB0FA30
:1018200080F0C0F11F0000EB800456F8240028B9B6
:101830004FF435620AA10FA0FEF7A2FE06EB84006A
:1018400000F10802416849684160914201D149684C
:101850004160C868286070BD20000020E0000020C2
:101860002E2E5C4672656552544F535C7461736BE7
:10187000732E63004572726F723A25732C25640DC6
:101880000A0000007CB52A4D28780190FF202870BE
:1018900028788DF800009DF800009DF8001000F0F9
:1018A000F000884205D04FF48A7222A12CA0FEF7E6
:1018B00067FE9DF800002E4C00F0500020700720BD
:1018C000A06006E0401EA0609DF8000040008DF87A
:1018D00000009DF800000006A068F3D403280ED095
:1018E00040F2271213A11EA0FEF74AFEA0680328AB
:1018F00005D04FF498720FA119A0FEF741FE207A8F
:10190000000200F4E060A0600198287019480168A6
:1019100041F470010160016841F070410160FFF71E
:1019200093FD00206060FEF7FFFB00207CBD0000FF
:1019300000E400E02E2E5C4672656552544F535C05
:10194000706F727461626C655C525644535C4152B4
:101950004D5F434D335C706F72742E630000000066
:101960004572726F723A25732C25640D0A000000CF
:101970008800002020ED00E010B5502080F3118891
:10198000BFF34F8FBFF36F8F00F000FB18B1044916
:101990004FF080500860002080F3118810BD0000D7
:1019A00004ED00E02DE9F04117460E46050005D193
:1019B0004FF4B67210A115A0FEF7E2FDBEB105FB13
:1019C00006F05430FFF74CFB04000ED004F1540035
:1019D0007EB12060C4E90F562046012100F01EF8B8
:1019E00084F8507000212046A164BDE8F0810020F9
:1019F000E7E72460EEE700002E2E5C467265655234
:101A0000544F535C71756575652E63004572726F36
:101A1000723A25732C25640D0A00000070B50D463E
:101A2000040004D1FB221DA121A0FEF7A9FDFFF7B0
:101A30004FFCD4E90F20216802FB001161600021F6
:101A4000A1632168A1600A46D4E90F01401E00FB92
:101A50000121E16021464FF0FF3001F8440F48704A
:101A600004F110004DB1FFF700FC04F12400FFF772
:101A7000FCFBFFF769FC012070BD21690029F8D04B
:101A800000F052FB0028F4D00D494FF08050086060
:101A9000BFF34F8FBFF36F8FEBE700002E2E5C4636
:101AA00072656552544F535C71756575652E6300A0
:101AB0004572726F723A25732C25640D0A0000007E
:101AC00004ED00E02DE9FF4F83B099468B460400FA
:101AD0004FF0000605D140F2DB2252A156A0FEF7DE
:101AE0004FFDBBF1000F07D1206C28B14FF43772C6
:101AF0004CA151A0FEF744FDB9F1020F08D1E06BF3
:101B0000012805D040F2DD2246A14BA0FEF738FDAA
:101B100000F028FA38B9059828B14FF4387241A17D
:101B200045A0FEF72DFD4FF0000A4FF08057DFF87B
:101B30001881FFF7CDFBA06BE16B884206D3B9F1AA
:101B4000020F03D0059800B316B325E04A46594664
:101B50002046FEF73EFFA16C21B149462046FFF723
:101B60007DF805E0616A19B104F1240000F0DCFAA7
:101B700028B1C8F80070BFF34F8FBFF36F8FFFF726
:101B8000E3FB012007B0BDE8F08FFFF7DDFB21E0AC
:101B90006846FFF781FD0126FFF7D6FBFFF72CFE15
:101BA000FFF796FB94F94400401C01D184F844A04F
:101BB00094F94500401C01D184F845A0FFF7C4FB0F
:101BC00005A9684600F05AF930B12046FFF70CFA33
:101BD00000F0F6FA0020D5E7FFF77AFBA06BE16B87
:101BE000884201D1012500E00025FFF7ADFB95B14A
:101BF00004F110000599FFF75DFD2046FFF7F4F9A9
:101C000000F0DEFA002894D1C8F80070BFF34F8FBF
:101C1000BFF36F8F8DE72046FFF7E6F900F0D0FAAB
:101C200087E700002E2E5C4672656552544F535C68
:101C300071756575652E63004572726F723A257312
:101C40002C25640D0A00000004ED00E02DE9F047AA
:101C5000984615468946040005D140F2A1322AA1D2
:101C60002EA0FEF78DFCB9F1000F07D1206C28B132
:101C700040F2A23224A129A0FEF782FCB8F1020FA3
:101C800008D1E06B012805D040F2A3321EA123A0A9
:101C9000FEF776FCFFF7EAFB5020EFF3118780F3A5
:101CA0001188BFF34F8FBFF36F8FA06BE16B88423A
:101CB00007D3B8F1020F04D0002087F31188BDE8E4
:101CC000F08794F94560424649462046FEF781FE7A
:101CD000701C04D0761C84F845600120EDE7A06CF0
:101CE000012620B141462046FEF7B8FF06E0606AB3
:101CF0000028F2D004F1240000F016FA0028ECD0FD
:101D0000002DEAD02E60E8E72E2E5C467265655203
:101D1000544F535C71756575652E63004572726F23
:101D2000723A25732C25640D0A0000002DE9F7474F
:101D300083B08A4604004FF0000605D140F2DE422F
:101D400044A149A0FEF71CFCBAF1000F07D1206C9A
:101D500028B140F2E2423FA143A0FEF711FC00F09F
:101D600001F938B9059828B140F2E74239A13EA0FF
:101D7000FEF706FC00274FF08058DFF8FC90FFF7D5
:101D8000A7FAA56BC5B151462046FEF70FFE6D1EA2
:101D9000A563206950B104F1100000F0C5F928B125
:101DA000C9F80080BFF34F8FBFF36F8FFFF7CCFAF6
:101DB000012006B0BDE8F087059808B11EB106E025
:101DC000FFF7C2FA27E06846FFF766FC0126FFF737
:101DD000BBFAFFF711FDFFF77BFA94F94400401CB2
:101DE00001D184F8447094F94500401C01D184F875
:101DF0004570FFF7A9FA05A9684600F03FF80028EA
:101E000020460AD0FFF7F0F800F0DAF92046FEF796
:101E100017FF0028B3D00020CBE7FEF711FF90B1E9
:101E200004F124000599FFF745FC2046FFF7DCF894
:101E300000F0C6F90028A2D1C9F80080BFF34F8F87
:101E4000BFF36F8F9BE72046FFF7CEF800F0B8F99D
:101E500095E700002E2E5C4672656552544F535C28
:101E600071756575652E63004572726F723A2573E0
:101E70002C25640D0A00000004ED00E02DE9F0417E
:101E80000C46050005D140F6264216A11AA0FEF721
:101E900077FB2CB940F6274212A117A0FEF770FB82
:101EA000FFF716FA184EF1686B682268C81A571CBB
:101EB00007D02F68366AB74209D08B4207D8012471
:101EC00000E00024FFF740FA2046BDE8F08182429E
:101ED00005D9101A20602846FFF7DEFBF1E7002045
:101EE0002060ECE72E2E5C4672656552544F535CC1
:101EF0007461736B732E63004572726F723A25734F
:101F00002C25640D0A000000200000202DE9FF5F51
:101F10008346DDE90E87994616468A469000FFF70C
:101F20009FF805001AD05C20FFF79AF8040012D041
:101F300025630021CDE90241CDE900874B463246B9
:101F400051465846FEF7DAFD2046FEF79FFC012079
:101F500004B0BDE8F09F2846FFF728FA4FF0FF30A5
:101F6000F6E700000548416919B1006B18B100207F
:101F700070470120704702207047000020000020B9
:101F80000148C06870470000200000202DE9F041A2
:101F90002D4F0026386B40B1B869401CB861F86914
:101FA00000B101263046BDE8F081FD686D1CFD6082
:101FB00011D1786B006828B140F6332223A128A004
:101FC000FEF7DEFA786BB96B7963B863386A401C48
:101FD0003862FEF769FFB86ADFF89480854209D35A
:101FE000786B006880B1786BC068C46860688542AF
:101FF0000DD2B8623868C06A00EB800158F8210041
:102000000128CCD90126CAE74FF0FF30F1E7201DA7
:10201000FFF718F9A06A18B104F11800FFF712F9D8
:10202000E06A01213A6981401143396100EB800186
:1020300008EB8100211DFFF73EF9E06A3968C96AA3
:102040008842CDD30126CBE7200000202E2E5C460F
:1020500072656552544F535C7461736B732E6300E9
:102060004572726F723A25732C25640D0A000000C8
:10207000E000002070B504004FF000063CD01F4D7A
:102080002868844205D040F63B721DA121A0FEF7CE
:1020900077FA206D28B940F63C7219A11DA0FEF711
:1020A0006FFA206D401E2065E26CE16A914223D0F8
:1020B00010BB201DFFF7C6F81A49012250B9E06A8B
:1020C00000EB800351F8233023B92B6902FA00F0AA
:1020D00083432B61E06CE062C0F12000A061E06A04
:1020E0002B6982401A432A6100EB800001EB8000DB
:1020F000211DFFF7E0F80126304670BD20000020CA
:102100002E2E5C4672656552544F535C7461736B3E
:10211000732E63004572726F723A25732C25640D1D
:102120000A000000E00000202DE9F041C068C4680A
:102130002CB940F6BB3216A11AA0FEF721FA04F121
:1021400018000746FFF77EF81A4D286B012660B18C
:1021500039461948FFF7AFF8E06A2968C96A88422A
:1021600013D90120EE61BDE8F081201DFFF76AF868
:10217000E06A2A6906FA00F1114329610F4900EB70
:10218000800001EB8000211DE4E70020EBE7000068
:102190002E2E5C4672656552544F535C7461736BAE
:1021A000732E63004572726F723A25732C25640D8D
:1021B0000A0000002000002088030020E00000202A
:1021C0002DE9F0472B4D00242746286B28B94FF402
:1021D000046229A12DA0FEF7D3F9FFF779F8286B47
:1021E000401E2863286BE8BBA8682C490126C8B3A9
:1021F000A1F52A798846D8F80010E9B1D8F80C0082
:10220000C46804F11800FFF71DF8201DFFF71AF845
:10221000E06A2A6906FA00F11143296100EB8001A6
:1022200009EB8100211DFFF746F8E06A2968C96AB9
:102230008842E0D3EE61DEE70CB1FEF735FEAC6913
:102240003CB1FFF7A3FE00B1EE61641EF9D100209E
:10225000A861E86930B11249012738070860BFF367
:102260004F8F00E001E0BFF36F8FFFF76DF8384646
:10227000BDE8F087200000202E2E5C467265655276
:10228000544F535C7461736B732E63004572726FAD
:10229000723A25732C25640D0A0000008803002083
:1022A00004ED00E02DE9F0470746994616460D4635
:1022B0002C20DDF820A0FEF7D3FE040014D0B84691
:1022C0004F46D1462DB94FF4B47209A10EA0FEF7C6
:1022D00057F9FEF743FB04F11801C4F8008081E8C8
:1022E000E002201DFEF7CCFF2046BDE8F08700008D
:1022F0002E2E5C4672656552544F535C74696D6551
:1023000072732E63000000004572726F723A25737B
:102310002C25640D0A0000001CB50024FEF71EFBEE
:102320000C48006868B10B491F20091DCDE9000168
:1023300000234FF4827208A10948FFF7E7FD04006B
:1023400005D140F20F1207A10CA0FEF719F92046A3
:102350001CBD00005C000020546D722053766300A9
:10236000C10F00082E2E5C4672656552544F535CB7
:1023700074696D6572732E63000000004572726FA0
:10238000723A25732C25640D0A0000002DE9FF47E1
:10239000DDF830A0994690460D4606004FF0000744
:1023A00005D14FF4C17212A117A0FEF7E9F81A4C3B
:1023B000206880B1CDE900580296062D11DAFFF7AA
:1023C000D1FD02284FF0000309D0002269462068A1
:1023D000FFF778FB074604B03846BDE8F087524661
:1023E000F4E700234A466946FFF730FCF2E70000B5
:1023F0002E2E5C4672656552544F535C74696D6550
:1024000072732E63000000004572726F723A25737A
:102410002C25640D0A0000005C0000203C2400080C
:1024200000000020A0000000A0050008DC24000837
:10243000A000002018440000B005000800000000C3
:10244000000000000000000000A24A04000000009C
:102450000000000001020304060708090000000054
:10246000000000000000000000000000000000006C
:10247000000000000000000000000000000000005C
:10248000000000000000000000000000000000004C
:10249000000000000000000000000000000000003C
:1024A000000000000000000000000000000000002C
:1024B000000000000000000000000000000000001C
:1024C0000000000000000000AAAAAAAA0000000064
:0C24D00000000000000000000000000000
:04000005080000ED02
:00000001FF
